:020000040000fa
:080000000001040000000000f3
:020000040000fa
:10020000cf4b22000e7f22000e018800000000006c
:100210000c000700201b2200110020001100070025
:10022000000020000000e000020032000000020098
:1002300000000000f2070200010000000040da00a8
:100240000000fe004440a900a0ab20000000e00038
:100250000300320000002000a00188004440a800f4
:100260000000060091018800800078000000eb008b
:1002700015003700e280400032a0b4009101ba00be
:10028000e280400032a0b4009102ba00e280400057
:1002900032a0b4000002eb00472bde00f507b200ed
:1002a000602ce10004003a000059eb008301e900f2
:1002b000fdff3e00040037006128e100010032002c
:1002c0000082eb00040007001101ba000200e00008
:1002d000e8ff3a00000006003159ba008301e90046
:1002e0000c0032002159ba008301e90008003200f5
:1002f0000400e00003003a00e280400032a0b400b5
:10030000f5ff370011d9ba008301e900faff3a007e
:100310008100e800e180400032a0b4000000060047
:1003200072060400010000005039040001000000c2
:10033000ea05040001000000363704000100000057
:10034000ba41040001000000740304000100000031
:100350006c2d040001000000542e04000100000078
:100360000040da000000fe00800078001106b100b5
:10037000030035009101b10001003c000050a100d4
:10038000000006001004b100030035009001b10028
:1003900001003c001000050000000500800078000e
:1003a0001104b100030035009101b10001003c00cf
:1003b0000050a000000006001004b1000700350046
:1003c0009001b100040034007000b100030035005a
:1003d0009001b10001003c00100005000000050084
:1003e0006900e100040035006d00e1000300340005
:1003f0000002b100010032000000050010000500fd
:10040000889fbe0080047800c02181000000e000c9
:1004100003003a009a0007000000e0000a003500df
:10042000c02181000900e00002003a0000047800c9
:100430000600370000047800090040009000070023
:100440000000e00001003d000084eb00080078009f
:100450004f04be00000006000c02e20004003d0054
:100460000f42ab00020032000f02ab00feff320071
:100470000040da00feff37000a00fa008001780031
:10048000e20f500028003e00d0218100e10f500013
:1004900008003200e02120000000e00005003200ea
:1004a0006421200085212000a62120008001780001
:1004b00004003700c4202000e52020000621200091
:1004c00043212000144090000004e00004003500a7
:1004d0008009eb00144090000074a00010429800c6
:1004e000154090000028a30003003a00154090003a
:1004f0000024a000904298008001eb000700370024
:10050000154090000008a300fdff320063c0780092
:100510000000fb00000b78008301e800828f51008f
:10052000f7ff3a000800370030002000b0bf9f00fe
:10053000c3bf9f00d1bf9f00e2bf9f006a805700ea
:1005400000c0da006fb99700020078000080fa005e
:10055000000006000a00fa0011002000b1bf9f0051
:10056000c0bf9f006a80570000c0da004fb89700f4
:100570000080fa00000006000a00fa005100200086
:10058000b1bf9f00c0bf9f006a80570000c0da0063
:100590005fb897000080fa00000006000a00fa0029
:1005a000881f7800800178000000e00029003a00f0
:1005b000d0218100e10f500008003200e02120002e
:1005c0000000e000050032006421200085212000a9
:1005d000c72120008001780004003700c4202000db
:1005e000e520200027212000432120001440900016
:1005f0000004e000040035008009eb001440900086
:100600000074a000104298000002eb000c003700bc
:10061000130a2000154478006140640002003a008b
:100620008301e900fbff3a000402e80095417800ed
:1006300061c0610005003200170078008058780022
:1006400004035100820f5200f1ff3a0006005100ee
:100650000800370020002000a0bf9f00b3bf9f000c
:10066000c1bf9f00d2bf9f006c80570000c0da005e
:100670005fb897004f0478000080fa000000060081
:10068000800078000000e00004003a00c04322002f
:10069000c021890001017800060037000081eb00cd
:1006a000c04b2200808f500002003e00c121890013
:1006b0000001eb000200780000000600020ab90009
:1006c000001bb9000200b800810042008100430015
:1006d00000000600889fbe008a9fbe0001057800ca
:1006e0000100e0000400350008003c000000e000cc
:1006f000200032000500370060001000e080180084
:1007000002003b0001f02c001a0037000004be007c
:100710006011b8006b0920000982cf000200390087
:100720000882cf000441b000694252000e0032003e
:1007300008003b0082817100610164008904d100de
:100740000884d3008b05e8000442e800f9ff3a0072
:10075000050037000804440089844c008b05e9003b
:100760000442e900fbff3a006b0107000af0a70012
:1007700001f0a0004f05be004f04be0000000600bf
:10078000889fbe008a9fbe008c1f780088010700ea
:100790001002200002003b00104588008c01370049
:1007a0008a0062006408e10002003a0010458800f7
:1007b000940137006108e100fcff32000800be0030
:1007c000030478000b00070001f0a100900107006e
:1007d00008f0a600040037000001be0091042400c8
:1007e000b0fd20007900070009f0a70001f0a20089
:1007f00080013700889fbe008a9fbe008c1f780052
:100800006b0107007201330003866c006450e10045
:100810002e0032006420e100330032006150e1001c
:100820002f0032006120e100310032008585550043
:10083000eb07b00009002000080420000500370085
:100840000804440089844c000a0031000603430078
:1008500087834b000001530081815b00f8ff330068
:100860000203be000800a0000804440089844c0074
:10087000f6ff3900c639dd00830173000100320044
:10088000130020008904d1000884d3000998a30034
:10089000050032000800a7000300a0008904d10071
:1008a0000884d3008b05e8008904d1000884d300b4
:1008b0000001eb000281d2001701070001f0a10046
:1008c0000cf0a70001f0a0004a0137006420e1000d
:1008d0004c0132000801be000200be00f7ff3700e5
:1008e0006120e100470132006000b800f3ff3700eb
:1008f0000000200001f82700f0ff3700889fbe00ad
:100900008a9fbe008c1f7800290107003001330048
:1009100003866c006450e100240032006420e10092
:10092000270032006150e100220032006120e10026
:10093000210032008b854200eb07b1000134b80082
:10094000003ab8000804420089844a00013ab8001d
:100950000030b8008880400009014a0004003300dc
:100960000000400081804800020149008b05e90039
:10097000c909dd008301700001003200130020006e
:10098000c814de004814dd004709de001200b20082
:10099000c808de0008847000df00070001f0a10035
:1009a0000cf0a70001f0a000120137006120e10067
:1009b000140132000801be000200be00f7ff37003c
:1009c0006150e100fcff3a000e01370003f0a20085
:1009d000889fbe008a9fbe008c1f7800f40007002d
:1009e000fb0033006450e1004f0032006420e1005e
:1009f0005200320003826c0007003b000905d00062
:100a00000306d000820f54000c065d00020039007e
:100a100002003200890178000306780085825500c3
:100a200004003d000003fd008103fd008502ea0093
:100a30008b854200840f720002003b0060001000b2
:100a4000e08018006011b8000005eb007a28e10092
:100a50000a00390006007800c75ddd00f707b20024
:100a6000878075002d003700828171000a017800af
:100a7000610560008180d1000080d3008502e9001b
:100a8000f9ff3b00060440008784480002003b0059
:100a900060041400e0841c000988a30007003200f1
:100aa0008a81710082817100610164008904d10032
:100ab0000884d3008b05e800170037000978a300ed
:100ac00013003a000b00e000130034008b05e9002e
:100ad0000804440089844c000a4474000978a30087
:100ae0000d003a000b00e000070034008b05e90020
:100af0000804440089844c0001003a000b002000e7
:100b00000978a300f7ff32000001eb000200370074
:100b1000828171000a0178007f0007000cf0a700b5
:100b200001f0a000b30037006420e10002003a00a9
:100b3000838f6c00b30033000801be000200be00ca
:100b4000ac0037000001eb00160107000400320082
:100b50000200200003f8230001f0a7009bff07001c
:100b6000000006000001be00350107000470a70068
:100b700003f0a1006509b100160032000d00350038
:100b80006828e10006003500f0ff2f00f1ff270084
:100b90000300e00013003b000100280000000500f6
:100ba00000004000818048008502e900fcff3a0017
:100bb00008003700f88f420002003c008000eb0084
:100bc000000005008100d1000080d3008502e8000c
:100bd000fcff3a000300e00002003b006000100050
:100be000e0801800000006001400200029013700f2
:100bf000f4ff2f00270137000001eb004001370010
:100c0000839f68000100e00002003d0060001000ca
:100c1000e08018000300e00002003d0060011100c8
:100c2000e08119009d0107004f00e00002003b0039
:100c300060001000e080180000000600889fbe00e1
:100c40008a9fbe008c1f78000004be00fc000700d5
:100c50000478a30026003a006120e100250032005c
:100c600009f8a30025003a006420e10021003200c9
:100c7000f507b1000508a3000200320000004000a3
:100c8000818048006044b80003102000020020006a
:100c900000004000818048000805440089854c0020
:100ca0000a0541008b8549000a0550008b855800d4
:100cb000030033000a00be00020474008384740041
:100cc0008301d1000281d300830f7100f0ff3a004d
:100cd0008904d1000884d3006001490082017800b2
:100ce000c1adde00fb07b0000b000700410037007c
:100cf0000960a0000800be003e003700120220007c
:100d000012458800f0ff2f00f1ff2700390037005f
:100d100004002000df0037008100200061805500c2
:100d20000b003d000b00200061fe2f000100e100e0
:100d30001d00340082817100610164008904d100ca
:100d40000884d3000000e800faff3a007100200098
:100d500061006400030070000200600009003200be
:100d600061044400e0844c000988a50005003200bd
:100d70008b05e8006808e10002003a008904d10010
:100d80000884d300f20f20000258e10005003d0066
:100d9000c75ddd00f907b2008980750008007800a2
:100da000000006000bf827008b007800000005000b
:100db0000004be00a20007000003be000405be0040
:100dc0000200be009e000700844f75000000060070
:100dd0000200be006450e100050036006420e1001e
:100de000020036000968a30001003a000800be00b6
:100df0000160a0004f0678004f05be004f04be0002
:100e000000000600f0ff2f00f1ff2700f9ff370078
:100e1000889fbe008a9fbe008c9fbe000004be005b
:100e2000870007000800be00890678006420e10002
:100e300008003900040032000160a0001202200006
:100e4000124588005300370091fc2300b0fd2000bc
:100e50004e0037000006eb0009f0a10003f8230064
:100e6000020020000800be005fff070006003400fb
:100e700001f82300000020000801be005dfe07000d
:100e80000004be002c0020000800be0093e82300f0
:100e9000320a230054ff0700120034000801be008c
:100ea000d1fd2300703d2b00c9fe07000005be00e8
:100eb000b3f32300f27a26000800be008ffe07007d
:100ec00003f8230002002000c0fe07000801be0056
:100ed000bffe07000a01be0046fe07000004be0078
:100ee0000c06e8000800be0001f0a100020020008e
:100ef000039823003cff07000800be0016003500e1
:100f00000801be007dfe07000005be0032cd2c00aa
:100f100043fb2300aefe0700809fbe00126928003d
:100f200003d52b000a00be0074fe0700620f2100eb
:100f300013ef2b00a6fe07000a01be006ffe07009c
:100f40004f01be002bfe07000801be006bfe07002c
:100f50000801be009efe07000c00e0000b003200fe
:100f60000c10a70001f0a200b2fd200093fc2300aa
:100f70006260e1000400320022a9200063f0230037
:100f80000c10a70063f8230091fe07000df0a700e6
:100f900001f0a2004f06be004f05be004f04be0088
:100fa00000000600889fbe008a9fbe000003be00ae
:100fb000230007008505780082815200020020008e
:100fc0006220e10004003a00f307b100040035009c
:100fd0007718e100040035000600be001400370059
:100fe0006000b8000f003700f50f2000faff2f0057
:100ff0008502d1000a85d3008301e900fcff3b0094
:101000008184620000046500890f7400f2ff3200e1
:101010008582ea000a85ea00818462000004650096
:101020003dff070007f0a70001f0a0000081eb00e2
:101030000200e0004f05be004f04be0000000600a5
:10104000c70ade00f107b200f50fb2000800320057
:10105000e1cf4200020032000170a0002400050030
:10106000810f7000010032000408050044000500f3
:10107000810f700002003a00140005008502e900ab
:101080000000400081c04800fcff3b000170a00050
:1010900024000500889fbe008a9fbe00841f780040
:1010a00043ff07004f00780011003300f0ff2f00ce
:1010b000838f6c0006003b00040565000a00a70052
:1010c0000800370009f0a6001000200008003700d3
:1010d000820f5400838f5c00030039001000200051
:1010e00001003e000000200009f0a7000000ea0017
:1010f0004f05be004f04be000000e00000000600e7
:10110000889fbe008a9fbe008c9fbe0002067800aa
:1011100001f0a7000cf0a0000004be00c8ff07000b
:101120000800be006420e1000700390002003a0018
:10113000f1ff2700f0ff2f000160a0001202200045
:10114000124588005100370009f0a1000800be00d8
:101150000200200003f82300a5fe0700f4ff3c0076
:101160000800be0002002000039823009efe070036
:101170000800be00300035000200200003f023000c
:101180009bfe070005003c000800be000801be00f1
:10119000dafd07000005be000e0037000c10a200ab
:1011a0000000200001f823000801be0007fe070030
:1011b0000200200003f02300d0fd07000005be0060
:1011c0009efe07000200200003002c00cbfd07005c
:1011d0000004be000a00be00b2d02800130b2c0091
:1011e000fbfd07000a01be00c4fd0700020f250039
:1011f000330b2400f6fd0700809fbe000a00be00ee
:101200005206220013f02b00bcfd0700b26621003d
:10121000f3f62300eefd07000a01be00b7fd07004c
:101220004f01be0073fd07000801be00b3fd0700bb
:101230000801be00e6fd07000c00a700070037000c
:10124000b2fd200093fc23000c10a700e0fd070076
:101250000cf0a70001f0a2000c0037000cf0a70072
:101260000200370001f0a20004003700b2fd2000a8
:10127000930424000c10a60003003700b2fd2000e8
:1012800093fc23000c10a700d1fd07004f06be0001
:101290004f05be004f04be00000006006022b800eb
:1012a000060220000000d0008180d2000482d2001b
:1012b0008582d2000000a0000202520083825a0000
:1012c000030031000202420083824a000000a100b4
:1012d0000603e900f3ff3a0000000600881f7800cb
:1012e000000478005001be004000be000400400031
:1012f000858048000601490087814900009cbe00a6
:101300000294be000400e1000588e1000690e100bf
:101310000798e10002003100680044001008e8006e
:101320004f04780000000600f4874700889fbe0045
:101330008a9fbe008c9fbe008e1f78000205be00f3
:101340000004be00d4b79f00e5b79f00f6b79f002a
:1013500087bf9f000000eb00c0b79f00b0b79f00a1
:10136000a0b79f0090b79f0080b79f000d0420009a
:10137000bfb097004fb09700000140000000e000b0
:101380000f003d004f08de0000007100c0b79f0055
:101390009e00070001003d0012002000a100070090
:1013a00001003d0012002000a6000700b100070068
:1013b000b60007000f004000c8ff070022003700fa
:1013c0004f08de0000067100ccb79f008f000700b9
:1013d00001003d00120020009200070001003d00c6
:1013e0001200200097000700a20007000fb297002c
:1013f0009fb297002fb39700bfb39700a9000700d3
:101400000000520081805a0002015b0083815b0072
:1014100080b79f0091b79f00a2b79f00b3b79f000e
:101420000007eb009f0007000020e10001a8e10099
:1014300002b0e10003b8e100010031001e0020000d
:101440000e005600c0b79f004fb297000400e000a6
:101450000700350010002000010020006011b800d6
:1014600008047000898470000a0571008b85710082
:101470008d06e900beff3a000400e00003003d00d5
:10148000820007000f00400094ff07004fa897005c
:101490000000e00004003a000fb497009fb49700ea
:1014a0002fb59700bfb59700940007004f0778004d
:1014b0004f06be004f05be004f04be004f01b100f5
:1014c00000000600881f780018002000881f7800a0
:1014d00095ff07008f87e9004f04780000000600a1
:1014e000801feb0090ff07008f87e90000000600d7
:1014f000889fbe008a9fbe008c1f78006e00070088
:1015000007003d0073000700e00f5b00e08f5b0009
:1015100007003d00320007000006eb000400370022
:101520003400070002003d002a0007001c002000d4
:1015300072000700e3ff07000203be000002be00c6
:101540000c00e00001003200220007000400be0091
:101550000601be004f0678004f05be004f04be00d6
:1015600000000600889fbe008a9fbe008c1f780086
:101570005100070005003d0056000700e00f5b002a
:10158000e08f5b0006003d000400370019000700f3
:1015900003003d006000b8006011b80010000700b3
:1015a00056000700ceff07000203be000002be0087
:1015b0000c00e00001003200060007000400be003d
:1015c0000601be004f0678004f05be004f04be0066
:1015d000000006006000b8006011b800000037008d
:1015e0000402500085825800060359008783590081
:1015f000000006000006eb00e00f5200e08f5a00ea
:10160000e00f5b00e08f5b000000060001804000ff
:1016100090b79f000001eb008fb097000100e00041
:10162000000006000200700090b79f00018040009b
:1016300080b79f000001eb00ffa897000100e000c9
:10164000000006000200700080b79f00018040008b
:101650006faa9700cf20de0001007000f0af9f005e
:1016600004024200250007004f18de00000272004d
:1016700000000600e4af9f000804440089844c0089
:101680000a054d008b854d00000006003fb2970013
:10169000cfb297005fb39700efb3970000fe2f0023
:1016a000000006003fb09700cfb097005fb19700f1
:1016b000efb19700000006000205be000004be0066
:1016c000e00f5000e08f5800e00f5900e08f590004
:1016d000000006006000b8006011b8000804500067
:1016e000898458000a0559008b8559001c00200088
:1016f000e00f5200e08f5a00000006000800be0014
:101700000a01be00000006002800fa00889fbe0003
:101710008a9fbe008c9fbe0003866b000c020700f0
:101720000028a30064003a000128a30067003a00e3
:101730000008a30062003a000108a30065003a0017
:101740001e009000be08900081064000ed3fb100f1
:10175000f4805700ee019000111ab8008e09900035
:10176000311bb8009e099000311cb800511db80013
:10177000f485570046000700fe0190003a0007007c
:101780008b85e8003e0007008e09900040000700ae
:10179000ee019000340007008b85e8003800070058
:1017a0008e099000400007009e0990001b18b800a9
:1017b000890440000a854800fe01900034000700bb
:1017c0008b85e80038000700ee019000300007002c
:1017d0008e0990001b18b800890440000a85480053
:1017e0000a98a30008003a000402420085824a00d9
:1017f00006034b0087834b0008044c0089844c008f
:101800000a054d008d06e90084827200850273008e
:101810004c3add0085027200010032001500200004
:10182000443ade001400b2004538de00cb45dd004e
:101830000b007000c540de00cb4ddd008b807000da
:101840004549de00cb55dd000b017100c551de00be
:101850000d037800d701070003f0a1000cf0a700ea
:1018600003f0a000ce0137001b18b800850240002d
:1018700006834800e0834b0060044c0007003700fb
:101880001b18b8000603400087834800faff3700a2
:101890001b18b8008703400008844800e0844c000f
:1018a00060054d00000006001b18b8000804400049
:1018b00089844800faff37000108a300b5013a0007
:1018c0005800be005801be00e3ff37000008a30027
:1018d000b0013a0009047800f9ff3700810378006d
:1018e000d7fd07000001be006000b8000478a30027
:1018f00013003a006220e10015003e000d0039009f
:101900008301d1000281d3008180d3008301d10003
:101910000281d3008180d3008301d1000281d300f2
:101920008180d3000538b000c42add00f300b20086
:101930008381720007f0a70003f0a00000000600fa
:10194000f3ff2700f2ff2f006110b900fbff370003
:1019500003ff2700f7ff37008f1fd100c1010700e9
:101960008f87e9000000e00000000600801feb0008
:10197000bc0107008f87e9000000e00000000600be
:101980001400fa00889fbe008a9fbe008c9fbe0094
:101990000005be000206be00680047000c90be00b5
:1019a0000a90be00d80107006400e1001a0032006e
:1019b00016003e006100e1001a0032006e04900043
:1019c000fe0490000e0b90009e0b90006011b8007a
:1019d0009e0590000b38b100d50120008281710076
:1019e000610164008703d1000683d3008984d3009a
:1019f0000884d3008502e900f8ff3a00c6fc07001e
:101a00000df0a70001f0a00065013700f1ff2700ed
:101a1000f0ff2f006201370001f8270000002000ce
:101a2000f7ff37006000b800f5ff3700dd01070061
:101a30000509780000000600809feb00890107007f
:101a40008f87e9000000e000000006002800fa008f
:101a5000889fbe008a9fbe008c9fbe00070678004c
:101a6000878669000c003b00030478008704780037
:101a700008f0a10009f0a100840f5000858f5800e4
:101a8000860f5900890f5c00030033000cf0a200a0
:101a900001003a000cf0a1002d0107006400e100f4
:101aa0005f003200780147006408e1006100320005
:101ab0006c014700748557003200be001201be0061
:101ac0003a04be001a05be001e039000be0a900034
:101ad0008503530006003d000004fd008104fd0065
:101ae0000205fd008305fd008703ea000503780079
:101af0000df8a3000400320060041400e0841c0010
:101b000060051d00e0851d006022b8007d032000f7
:101b10000d38e1008006eb000b0039004433dd0096
:101b2000f300b20083017300390037008482720031
:101b30000d027800e10664008b85d1000a85d30090
:101b40008984d3000884d3008703e900f7ff3b00b2
:101b500008004000898048000a0149008b81490043
:101b600004003b0060001000e080180060011900d4
:101b7000e08119000358a300090032008d82720031
:101b800084827200610260008301d1000281d3006f
:101b90008180d3000080d3000603e8001b003700db
:101ba0000348a30017003a000600e00017003400c5
:101bb0000603e9000d00a3000000480081804800f2
:101bc00002014900838149000348a3000f003a0045
:101bd0000600e000090034000603e90000004000b0
:101be00081804800020149008381490001003a00d8
:101bf0000003eb000348a300f5ff32006022b800a9
:101c0000020037008482720061826600e9000700ea
:101c100003f0a1000cf0a70003f0a000e0003700e3
:101c2000640147006408e10002003a000df8a300d7
:101c3000d8003a003200be001201be00d8003700c2
:101c40001400fa00889fbe008a9fbe008c9fbe00d1
:101c50000004be000205be00680047000a90be00f6
:101c60000890be00280107000070a7000bf0a1003b
:101c70000bf8a30020003a009e0990000e09900086
:101c8000fe0090006e0090009e0290003443200001
:101c900084825200c20032000a003c00b4fc2f00d3
:101ca0000428e100140034008301d1000281d30034
:101cb0008180d3000080d3008502e800faff3a005b
:101cc000b7003700b40020000428e10007003c0002
:101cd00000004000818048000201490083814900e2
:101ce0008502e900faff3a00ad0037000300280042
:101cf00002002000010037006011b8006000b80049
:101d0000a70037002800fa00889fbe008a9fbe0007
:101d10008c9fbe0003866b008d0007006400e1000d
:101d2000440032006408e1004a0032006100e10032
:101d3000460032006108e10049003200ec0647002d
:101d40006000b8003d02be003d03be00f4865700af
:101d50006011b8003d04be003d05be007d032000bb
:101d60000b0037000000a0008d06e90013003200d0
:101d70000402420085824a0006034b0087834b0021
:101d80000000400081804800020149008381490031
:101d90000802520089825a000a035b008b835b00b1
:101da000f0ff3b000802420089824a000a034b0010
:101db0008b834b008d06e900edff3a0084827200b0
:101dc00086827200f707b20087827200010032003b
:101dd000150020001e0490003e0b900006035400e6
:101de000e63fb0000368a300070032000000a70030
:101df0000500a0008301d1000281d3008180d300bf
:101e00000080d3000603e8008301d1000281d300e3
:101e10008180d3000080d3000002eb000482d20056
:101e20006400070003f0a1000cf0a70003f0a0007d
:101e30005b003700640247006408e100550032008f
:101e40003400be003401be00f6ff37006108e10037
:101e5000500032006011b8006000b800f1ff370098
:101e600003ff270002002000fbff3700889fbe0011
:101e7000830478000300e0002c00350003003c00e0
:101e800000827000040271002600320036432000f8
:101e9000c50020008383cf000a0039000541b1004e
:101ea0008283cf00070039000541b1008183cf0054
:101eb000040039000541b1008083cf0001003900e2
:101ec0000541b10085c353006022b8001200320002
:101ed0000a003b0084827200610260008301d1002d
:101ee0000281d3008180d3000080d3000603e80084
:101ef0008743e800f7ff3a00070037000000400082
:101f00008180480002014900838149000603e900fd
:101f10008743e900f9ff3a002600070009f0a7000f
:101f200003f0a0004f04be00000006006000100097
:101f3000e080180060011900e0811900d3ff3b0028
:101f4000033e2c00f7ff370007f0a200bffe37006a
:101f5000680447000294be000094be00fc044700e1
:101f60008694be008494be000900780066000700d5
:101f7000080078006400070099007800814f700025
:101f80000b003b000800be00930007004f00b100ab
:101f900003003700f3ff2700f2ff2f006110b900a4
:101fa0004f06be004f05be004f04be000080fa0081
:101fb000000006001800200057002000080453000d
:101fc0000d003d000600200097fc2f000740e100b7
:101fd0001e00340084827200610260008301d1001f
:101fe0000281d3008180d3000080d3000804e80080
:101ff000f8ff3a0047002000610460000504740007
:10200000040464000d00320061004000e0804800dc
:1020100060014900e081490003b8a50007003200d3
:102020000603e8006538e10004003a008301d100ae
:102030000281d3008180d3000080d300f87f20008c
:102040000830e10003003500080378006000b800a4
:102050006011b8004433dd00f300b2008301730067
:1020600000000600889fbe008a9fbe008c9fbe00b5
:102070000404be000605be00809fbe00829fbe0015
:1020800063000700040678000800be000a01be00d5
:102090005f000700840678004f03be004f02be00b9
:1020a0008d4f76007fb0970013003300f0ff2f00b4
:1020b0008b8f6b0006003b000d0666000c00a7002e
:1020c0000a00370007f0a600100020000a003700c1
:1020d000880f5200898f5a008a0f5b008b8f5b003c
:1020e000030039001000200001003e000000200025
:1020f00007f0a7000000ea004f06be004f05be0033
:102100004f04be0000000600800078005002be00b0
:102110005003be004439de00f700b200f37f200018
:1021200003016100090032000218e10016003a00c4
:102130008501720083017300838173000008200011
:1021400015003a004000200013003700850172009e
:10215000830173008381730005003a0004a8be0068
:1021600006a8be00100020000b0037000201e900a5
:102170000402420085824a0006034b0087834b001d
:102180000748a300f9ff32000740a00004a8be00e2
:1021900006a8be0020002000800098009200980051
:1021a000000006000003be00a5fb07006220e1005e
:1021b000020032000600be0005000500e507b10080
:1021c000f107b20004f023008480700007f0a7003c
:1021d00001f0a00024000500e48240001078a30074
:1021e00007003200640240001178a3003400be00f2
:1021f0001401be00040032000330a70000000600f6
:102200003500be001501be000330a000000006002e
:1022100005ff270005826100070032000428e10065
:1022200001003200240005000600070001003a000a
:10223000440005000408050002000700f9ff3a0009
:10224000140005006f826100810270008502710038
:102250008502720000000600800078003004e00073
:10226000feff3a00010050000000e90000000600f7
:102270000c00fa00a0bf9f00c0bf9f00f6ff070040
:10228000b0bf9f00f0bf9f00100c2000d0bf9f0088
:1022900074815700efb097006c805700470107002a
:1022a0000080fa00000006008001eb000200370009
:1022b000817178008301e800828f5100fcff3a00b1
:1022c000000006000c00fa00a0bf9f00c0bf9f00e6
:1022d000e1ff0700b0bf9f00f0bf9f00100c20007f
:1022e000d0bf9f0074815700efb097006c805700fb
:1022f0007f0207000080fa0000000600000178005d
:1023000000c2b300010037000201e80092407800eb
:1023100080cf5000fcff3200e9cf5000faff3200be
:10232000d0c2b30080cf500003003a000201e800a1
:1023300014c0b300050037000042eb00b0c2b30088
:1023400080cf500001003a000201e8008000eb005d
:1023500005fd2f00040037006a08b9000080410025
:10236000850040000201e8009201fb000580410069
:10237000e90f5000f8ff36000404e00001003200cd
:102380008100ea000100780000000600889fbe007e
:102390008a9fbe008c9fbe0000017800213f220072
:1023a0001100e0000b003a00603f2200901f8900fe
:1023b000701f8900b11f8900811f89002140900092
:1023c0000004a000a0409800614090000004a0001c
:1023d000e0409800e7004100c208de00c20cdd00ca
:1023e000841f8100cd432200c04b22000d05500008
:1023f00022002000811f7800110009000205d8008a
:1024000000067800cf007800c308dd00e4854000b6
:102410008001eb00c6432200253f22000100370067
:1024200001027800244090000008a300020032005e
:102430000a003700110a78009400780021409000cb
:102440000008a300fbff320009014200828f500008
:1024500002003900840f51004600310094007800da
:10246000848f5000eeff3e00868f5000020039003e
:10247000858f5000eaff3900701f8100800f5200e5
:102480004f003a00858f50004d003a008301e8006c
:10249000e18f5100e2ff36008c8f540004003600bb
:1024a0008a8f5400020031000b04780012003700bc
:1024b000614ab8006151b900b0ff2f00010020004f
:1024c0000200500083805800800f5200818f5a0014
:1024d0000200350009047800070037000d80540021
:1024e000f24b220002004000110009000a80d800cf
:1024f0000a80b9000004780008007800c0f70700df
:1025000080017800e10f40002d003200701f810033
:1025100003087800721f810064004100a24090000f
:10252000808f5100020032000104a000010037003a
:102530000104a1002141980008804100640050007e
:1025400080097800701f8900223f2200020878006d
:10255000711f8100214090000004a000a04098005d
:10256000234090000004a100a041980002027800de
:10257000a7ff3700821f8900828f500009003600b4
:1025800092007800c03e2200a241900003487800eb
:10259000511f8900140978008040eb00801f8100e2
:1025a00021409800801f8100000a7800244090009c
:1025b0000004a0002042980064004200010037009f
:1025c0000000eb004f06be004f05be004f04be00ea
:1025d0000000060064005000801f8900a0409000a9
:1025e0000104a1002140980000000600889fbe0061
:1025f0008a9fbe0000057800e4015000130010001f
:10260000c285de00234090000008a30004003200d1
:10261000831f8900234090000004a100a04198007e
:102620000100780059ff0700000478000000e00076
:10263000170032008a0f50001500320060b8970072
:1026400008005000c284de00898f5500010036006a
:10265000890578004259dd008a007800080078007a
:10266000c40207008a0f5400090031004248dd000f
:10267000000044008a0f5000050036000a00500098
:1026800000004400521f8100631f81000288be00c9
:10269000080078004f05be004f04be000000060091
:1026a00000047800ba020700080078006af7070003
:1026b0000c00fa00889fbe0000047800cfb097009d
:1026c000f0ff2700d0bf9f008004eb0099bf9f0060
:1026d00088bf9f00a8bf9f00200c2000b0bf9f00b4
:1026e00078815700708057000e0307000fb89700dd
:1026f000094878000fb897000804500008007800d7
:102700004f04be000080fa0000000600889fbe0053
:10271000000478008144780000fd2f000000440090
:10272000e90f500002003e00000178000d00370064
:102730000800780013f707000000e00003003200f3
:102740000800780015f707000004780008007800fa
:1027500019f707000000e0000700320090fa2f0090
:10276000000144000980fb00800f510002003d0081
:102770000280fb0001003700f00f20004f04be0074
:1027800000000600881f7800702181002a080700d9
:102790000004780012f707000000e000faff3a009a
:1027a000e10f44000300320071218100080078002d
:1027b000550807004f04780000000600ec8747002a
:1027c000889fbe008a9fbe008c9fbe008e1f78002f
:1027d00081bf9f0002077800702189008046eb00ce
:1027e000040137008884fb0009007800fcf607002c
:1027f000800078000000e00002003200e1ff0700e6
:10280000fc00370050c2b300804f5400f0003a0083
:102810000fbd970020c0b300c0ef9f00d1ef9f0015
:1028200081ef9f000300370040c0b300c0ef9f005e
:102830000fbd97000fb99700b240780082bf9f008c
:102840008184fb0090c6b30080cf50003500320079
:1028500017003e006640500080cf500062003200fa
:102860000c003e007740500080cf5000280032001e
:1028700006003e000104e0009b003200a0c2b3004d
:1028800080cf50006e003a001d00370080c5b300b5
:102890001600370040c6b30080cf50002100320040
:1028a0006440400080cf500065003a0012003700bd
:1028b00030c7b30080cf50001e00320007003e003a
:1028c0006740500080cf500011003200634040004c
:1028d00080cf50005a003a001400370050c7b300b0
:1028e00080cf50000f0032006340400080cf500086
:1028f00053003a006500370020c0b300cbff37001b
:10290000dfe897008140e800d1ef9f00c8ff370063
:102910004fe9970080c0b300e24f5100c3ff3a0077
:10292000c1ff3700acc0b300590037008cc0b30002
:102930005700370093ff0700dfe897000104e0002d
:1029400002003a004e017800d2b79f00702181004a
:10295000b907070000047800e10f4000a200320030
:102960008fec9700120037000a85e8008abf9f00ad
:10297000160037008fb897001100fb00800f54003d
:10298000f9ff32005fe997000204e00003003a001b
:102990005fb0970008587800d0b79f008944e900dd
:1029a0000a00320070218100a307070000047800ac
:1029b0000800e800e10f500004003600080078002d
:1029c00087f607000000e000eaff3200dfe897002a
:1029d0000104e00087003a008d46e8005fb19700ef
:1029e00001497800830037005fe897000004e000a9
:1029f00003003a008d46e800ce007800d1b79f0072
:102a0000702181008c070700e10f40007600320042
:102a10005fe997000204e00003003a00dfb097008e
:102a200080587800d1b79f000fe997000241e90074
:102a300082ef9f004240a9006e003400f0ff370093
:102a40000180fb0008fd2f0008004000e90f500046
:102a50005f003e000a00780028fe070080ef9f001c
:102a600088007800030037000fb897000000e800e6
:102a700080bf9f000fb997001200fb0001004000cb
:102a8000e90f5000f8ff360069ff37000cc1b300b2
:102a90003cff0700702181006707070000057800f0
:102aa0000040eb00e0ef9f00d0022000800f5500b7
:102ab00005003a00702181005f07070000057800db
:102ac00011c0b300e1ef9f008c4078000a0078004d
:102ad0000eff0700e14f40000a003a00712181001b
:102ae0000a007800880707000d04e0004b003a0058
:102af00070218100300090000048a30043003200a4
:102b0000480037008fed97006044b8000c81fb004f
:102b1000030020000800be00e8f607000004be0025
:102b20008c4078000a007800f8fe07000080fb0067
:102b30000100200008044000898448008b45e9001a
:102b400007003200702181003b0707000005780074
:102b50008c407800edfe0700e14f4000ebff3a00ab
:102b60008c4078000a007800e8fe0700e14f400042
:102b700003003a00712181000a0078006207070013
:102b80006fe997000204e0000200320060041400c4
:102b9000e0841c005fe897000004e00015003a00a4
:102ba0008d46e800cfe89700e4cf500003003a00dc
:102bb0004e0078000888be000e0037000e81e90044
:102bc0000207780012007800080878000900370032
:102bd0007021810018070700808f54000500320023
:102be000e10f40000b003a000d04e0000d00320040
:102bf0000a0037008fb897003144780081bf9f00ea
:102c00000804e000f7fe3a00040037000000eb0083
:102c100005003700712181003b0707000d80fb0094
:102c2000010037000080eb004f0778004f06be0020
:102c30004f05be004f04be00cf00b10000000600eb
:102c4000889fbe00000478008144780000fd2f00ba
:102c500000004400e90f500002003e00000178002f
:102c60000d00370008007800c6f507000000e000fe
:102c70000300320008007800c8f50700000478005f
:102c800008007800ccf507000000e00007003200e3
:102c900090fa2f00000144000980fb00800f5100d2
:102ca00002003d000280fb0001003700f00f200011
:102cb0004f04be0000000600881f780080218100bc
:102cc000dd06070000047800c5f507000000e000fd
:102cd000faff3a00e10f4400030032008121810035
:102ce00008007800080707004f047800000006007d
:102cf000ec874700889fbe008a9fbe008c9fbe0065
:102d00008e1f780081bf9f00020778008021890014
:102d10008046eb00040137008884fb00090078003e
:102d2000aff50700800078000000e00002003200ec
:102d3000e1ff0700fc00370050c2b300804f540091
:102d4000f0003a000fbd970020c0b300c0ef9f0015
:102d5000d1ef9f0081ef9f000300370040c0b30018
:102d6000c0ef9f000fbd97000fb99700b2407800e9
:102d700082bf9f008184fb0090c6b30080cf5000cb
:102d80003500320017003e006640500080cf5000f2
:102d9000620032000c003e007740500080cf5000af
:102da0002800320006003e000104e0009b003200d3
:102db000a0c2b30080cf50006e003a001d00370063
:102dc00080c5b3001600370040c6b30080cf500066
:102dd000210032006440400080cf500065003a007e
:102de0001200370030c7b30080cf50001e00320001
:102df00007003e006740500080cf500011003200b5
:102e00006340400080cf50005a003a001400370061
:102e100050c7b30080cf50000f0032006340400025
:102e200080cf500053003a006500370020c0b30047
:102e3000cbff3700dfe897008140e800d1ef9f002b
:102e4000c8ff37004fe9970080c0b300e24f510040
:102e5000c3ff3a00c1ff3700acc0b30059003700d0
:102e60008cc0b3005700370093ff0700dfe89700de
:102e70000104e00002003a004e017800d2b79f0042
:102e8000802181006c06070000047800e10f4000fb
:102e9000a20032008fec9700120037000a85e8008c
:102ea0008abf9f00160037008fb897001100fb0003
:102eb000800f5400f9ff32005fe997000204e00040
:102ec00003003a005fb0970008587800d0b79f0021
:102ed0008944e9000a00320080218100560607007b
:102ee000000478000800e800e10f500004003600fc
:102ef000080078003af507000000e000eaff320021
:102f0000dfe897000104e00087003a008d46e80002
:102f10005fb1970001497800830037005fe89700b0
:102f20000004e00003003a008d46e800ce0078007f
:102f3000d1b79f00802181003f060700e10f4000cc
:102f4000760032005fe997000204e00003003a00d7
:102f5000dfb0970080587800d1b79f000fe9970045
:102f60000241e90082ef9f004240a9006e00340058
:102f7000f0ff37000180fb0008fd2f000800400033
:102f8000e90f50005f003e000a007800dbfc0700fc
:102f900080ef9f0088007800030037000fb897008b
:102fa0000000e80080bf9f000fb997001200fb00ef
:102fb00001004000e90f5000f8ff360069ff3700bc
:102fc0000cc1b3003cff0700802181001a060700f6
:102fd000000578000040eb00e0ef9f00d0022000e9
:102fe000800f550005003a0080218100120607007d
:102ff0000005780011c0b300e1ef9f008c4078001d
:103000000a0078000eff0700e14f40000a003a0076
:10301000812181000a0078003b0607000d04e000d2
:103020004b003a0080218100300090000048a3004e
:1030300043003200480037008fed97006044b8002d
:103040000c81fb00030020000800be009bf5070078
:103050000004be008c4078000a007800f8fe0700eb
:103060000080fb0001002000080440008984480023
:103070008b45e9000700320080218100ee05070042
:10308000000578008c407800edfe0700e14f40001d
:10309000ebff3a008c4078000a007800e8fe070059
:1030a000e14f400003003a00812181000a007800ce
:1030b000150607006fe997000204e00002003200e5
:1030c00060041400e0841c005fe897000004e00046
:1030d00015003a008d46e800cfe89700e4cf500095
:1030e00003003a004e0078000888be000e0037004a
:1030f0000e81e900020778001200780008087800c5
:103100000900370080218100cb050700808f540023
:1031100005003200e10f40000b003a000d04e00012
:103120000d0032000a0037008fb897003144780054
:1031300081bf9f000804e000f7fe3a00040037005a
:103140000000eb000500370081218100ee0507003b
:103150000d80fb00010037000080eb004f07780076
:103160004f06be004f05be004f04be00cf00b100a9
:10317000000006008001eb000200370061f07900da
:103180008301e800828f5100fcff3a000000060036
:10319000881f7800902181000000e00001003200cb
:1031a00000000100a835220008007800f3050700a0
:1031b0006c044400e0372200800f5400faff3a000c
:1031c0004f04780000000600889fbe008a1f780028
:1031d000804078000004e00021003d008040ea00cb
:1031e000d0c6b30080cf5000090034008104fb003a
:1031f00042062000110009008204d8000001780076
:10320000010078004311dd002ad221001f003700a1
:103210000100fb0023d2210039003700a20020006a
:10322000110009000200d8000001780001007800b8
:103230004311dd00030141004300dd0003004000b5
:103240003002be002003be0042209000d220900039
:10325000f2219000622190002bf907002e00370028
:10326000d0c6b30080cf5000230034008104fb009f
:1032700042062000110009008204d80000017800f5
:10328000010078004311dd002add21000a01410020
:10329000a8002000110009000800d8004300dd004c
:1032a0000a00400040229000d0229000602390004d
:1032b000f02390000288900092889000b2899000dc
:1032c0002289900010f90700801f78000102780021
:1032d000110009008804d8000102fd004f007800a9
:1032e0000402fb004322dd000a0242005403be0038
:1032f0004402be00d8ff37000100fb0023dd21009f
:10330000eacf5000c5ff3c004300dd000300400051
:103310005001be004000be004f0578004f04be00c3
:10332000000006008f03b000889fbe008a9fbe0089
:103330008c9fbe008e1f7800e0b79f00f1b79f0002
:1033400082bf9f000000eb00a0b79f00e60437009b
:103350008001eb0050c2b30080cf50000900320062
:103360000100fb00efb09700ec040700e10f400004
:10337000dd043200afb097008100e800a1b79f00e4
:10338000d90437007fb1970092407800d0c2b300d3
:1033900080cf50000c00320007003c006d40500010
:1033a00080cf50000d0032006b40400080cf5000b5
:1033b00019003a000e00370000c3b30080cf500060
:1033c00015003a000f0037000330a0007fb29700cd
:1033d0000402e800f4b79f00eaff37000300a000f2
:1033e000ffb297008502e800f5b79f00e5ff3700c0
:1033f0000310a0007fb697000c06e800fcb79f0002
:10340000e0ff37000320a0007fb097000000e80035
:10341000f0b79f00dbff37000318a3000100320064
:103420000300a1000338a300010032000320a10023
:103430000100fb0002fd2f0002004000e90f5000d8
:1034400010003e008000eb00c1b79f000202780030
:103450004fb197006a10b900ffb297001501fb0049
:103460000001410004014100c2b79f005500fb006c
:10347000f5b79f0004004000e90f50000d003e002a
:10348000f3ff37000006eb00ccb79f00a0c2b300eb
:1034900080cf500007003a000fb89700c0007800b6
:1034a00080bf9f00c1b79f007fb197000201e80075
:1034b000f2b79f00e0c2b3007fb29700944f1000b4
:1034c00021003a00830678000de0a0008400e800a7
:1034d00064405000914f100004003200f1b79f008b
:1034e0008002eb00b5b79f00100037000fbe9700b9
:1034f0004c0078008cbf9f00b0b79f00ffb09700d2
:103500008180e800f1b79f00130037003fb29700b9
:103510006a20b9000000410003004000b0b79f00de
:10352000ffb297008502e800f5b79f007fb69700cd
:103530001c01fb0003fd2f0003004100e90f5000b8
:10354000f2ff360004003700830678000dc0a000ab
:103550000000eb00b0b79f007fb19700b240780049
:10356000f2b79f00c17f9f00c0c6b30080cf50005c
:103570002700320014003c006840500080cf50000b
:103580009d00320009003c006c40500080cf50008c
:10359000290032006b40400080cf500072003200a2
:1035a0000104e000560432008e00370060c6b3000c
:1035b00080cf50001c0032006340400080cf50009c
:1035c00088003a008c00370030c7b30080cf50002d
:1035d0001c00320007003c006440500080cf5000c7
:1035e000130032000040e80080cf50007d003a0018
:1035f0001100370050c7b30080cf50007d0032006b
:103600006340400080cf500076003a000b00370046
:10361000000028000d48a30001003a00000120002e
:1036200080867600ccff37000da0a0007200370026
:103630000d60a000700037000d50a0000d70a000bc
:103640006d0037008fb997004300780083bf9f005b
:10365000000478000000e00001003a00e832220097
:103660008004eb00010037008104e8008900780045
:10367000088044001004e000fbff3a003fb29700ce
:103680000400e00003003200890f52000100310005
:10369000840478000007eb00cfb29700898f5200b6
:1036a00001003600098752004368de00e106600031
:1036b00019003a000d06780009003700efb09700b6
:1036c0000002200015040700e10f40000300320053
:1036d0002fb097000000e800a0b79f000c06e8009c
:1036e0008e0f5600f5ff3a000087eb000a00370006
:1036f000880078003100fb0001047800efb09700eb
:1037000006040700e10f400003003200afb097004d
:103710008100e800a1b79f000900e900800478005b
:10372000e10f4000f2ff3a000006eb000d00e00060
:103730000a003a00ec033700efb0970000022000c7
:10374000f6030700e10f4000030032002fb197009d
:103750000201e800a2b79f000c06e8008e0f560099
:10376000f5ff3a00e00337008fb997004300780077
:1037700083bf9f00cf80de000101780082017800c6
:103780000205be000004be000203be000002be002f
:103790004822de00482edd0004027600c47f9f0030
:1037a0000d48a3000a0032000404e00008003200c3
:1037b000e14f420006003200d1fb2f00018047009c
:1037c00004487800184098002900200002003700c3
:1037d000d07f9f0019002000d2fb2f0002844700f9
:1037e000a6ff3700c3fb2f00038447001900200009
:1037f000a2ff37000d0cb3000070200000826600ad
:10380000270232000dc8a30002003200640020002d
:10381000b4b79f000d48a300050032000fba97000f
:103820004401be004400be0084bf9f000400370076
:103830008fba97004500be0085bf9f0027f807009c
:10384000e0af9f00f1af9f0082b79f0093b79f004a
:103850006022b8006033b8006fa89700ffa89700f7
:103860000fb197009fb197003bf807000000e00000
:103870000a003d006fa89700ffa897000fb19700be
:103880009fb1970003f0a200e0af9f00f1af9f004f
:1038900082b79f0093b79f003d00b3000000eb008c
:1038a00080a79f006022b8006033b8006fa897001f
:1038b000ffa897000fb197009fb197002bf8070062
:1038c0000000e000340032006fa89700ffa89700c6
:1038d0000fb197009fb1970029f8070003fc2f0054
:1038e0000381470051f807000fa097000000e9008e
:1038f0006300b900a2002000110009000200d800f6
:103900008000fd0081a79f000100e00002003d0053
:103910000100e90080a79f000fa497000840ea007b
:1039200029fe07006faa9700ffaa97000fb3970020
:103930009fb3970074f70700a0af9f00b1af9f003f
:10394000c2af9f00d3af9f006022b80006002000e6
:1039500007ff230000f807000000e00002003d0020
:103960000800e9000b0037006022b80006002000c4
:10397000470224002fa89700bfa897004fa99700df
:10398000dfa997002cf807000000e00002003500d6
:103990000800e80080a79f003fb29700f80f520090
:1039a00057003c00d0c6b300804f520029003600bb
:1039b0000485fb0042062000110009000285d800a2
:1039c00000017800010478004311dd002bd22100b2
:1039d0000b0141006022b8000600200007fe230012
:1039e0000288900092889000b2899000228990000d
:1039f00045f70700a9002000809fbe0011000900c4
:103a00000984d800000478004f00be004344dd0064
:103a10000b04440048229000d822900068239000b4
:103a2000f823900038f70700801f78000102780023
:103a3000110009000985d8000102fd004f0078003f
:103a40004322dd000b0242005403be004402be00cc
:103a50001f0037000480fb0029d22100ea4f5200ea
:103a600014003600a2002000110009000280d800d6
:103a700000017800010478004311dd0009014100d4
:103a80006022b8000600200007fe230042209000bc
:103a9000d2209000f2219000622190001af70700d6
:103aa0004344dd00090444003802be002803be0080
:103ab000070037004300dd00090040006022b80025
:103ac0000600200007fe23005001be004000be009b
:103ad0000df707000002be000203be006fa89700aa
:103ae000ffa897000fb197009fb19700d7f7070085
:103af000e0af9f00f1af9f0082b79f0093b79f0098
:103b00000fa49700e90f540015003c006022b80094
:103b10006033b8006fa89700ffa897000fb1970017
:103b20009fb1970091f707000000e00032003200db
:103b30006fa89700ffa897000fb197009fb197005b
:103b40003ff80700e00f5000e08f5800e00f5900e9
:103b5000e08f590028003a00e10f5400260034009d
:103b60000400200005002e00b6e02200170124000a
:103b70002fa89700bfa897004fa99700dfa997002b
:103b800075f707000000e00002003d0073005400dc
:103b9000010037007200540080a79f000fc09700fb
:103ba00089fd0700a0af9f00b1af9f00c2af9f008b
:103bb000d3af9f000002be000203be006fa89700b3
:103bc000ffa897000fb197009fb197004df807002d
:103bd0001bf807000205be000004be006000b8002c
:103be0006011b800a0a79f00b1a79f00c2a79f00c7
:103bf000d3a79f002e0037006fa89700ffa897005b
:103c00000fb197009fb197000df807000205be00a5
:103c10000004be00e00f5000e08f5800e00f590094
:103c2000e08f59000200350090f8070013003700bc
:103c300010002000010020006011b80008006000a2
:103c4000898060000a0161008b8161008b03d100d3
:103c50000a83d3008982d3000882d3000000720057
:103c60008180720002017300838173007ff8070076
:103c70000002be000203be0074f707000002be008f
:103c80000203be006fa89700ffa897000fb197002e
:103c90009fb19700acf80700a0a79f00b1a79f00b5
:103ca000c2a79f00d3a79f000000eb0080a79f0042
:103cb00014c0b300a51d22000b0037000400fb0058
:103cc0004300dd00050040005001be004000be0082
:103cd0000040e10001c8e10002d0e10003d8e100aa
:103ce000030039000442e800f44f5200f3ff3a00a9
:103cf000c47f9f000400fb00bfb09700008040001d
:103d00008fa09700010040004fb1970000075100bd
:103d1000bfb197000300e000010032000e07e90088
:103d200063806600010032000e07e9000d28a30041
:103d300026003200e18066000d18a3000c0032005e
:103d4000d00220000100e00001003a000080e900fc
:103d5000efb0970071020700e10f40001800320039
:103d60002fb297000402e800a4b79f0014003700a8
:103d70000100e00012003200efb0970000022000c6
:103d800066020700e10f40000d003200afb297005d
:103d90008502e800a5b79f0009003700efb0970043
:103da000000320005d020700e10f40000300320025
:103db0002fb697000c06e800acb79f000e07e9008d
:103dc0000e00e000f5ff3c003d0037000d38a30079
:103dd0000a0032000b003700efb09700000220000d
:103de0004e020700e10f4000030032002fb09700a1
:103df0000000e800a0b79f000e07e9000e00e000f9
:103e0000f5ff3c00e18066000d18a3000c003200b5
:103e1000d00220000100e00001003a000080e9002b
:103e2000efb097003d020700e10f40002400320090
:103e3000afb097008100e800a1b79f0020003700d5
:103e40000100e0001e003200efb0970000022000e9
:103e500032020700e10f4000190032002fb1970035
:103e60000201e800a2b79f00150037000000fb0028
:103e70004300dd00a11d2200010040003002be0011
:103e80002003be000800be000a01be008df5070039
:103e9000a4002000050020006033b80090f5070062
:103ea0000003b000efb097001c020700e10f4000d4
:103eb00003003200afb197008301e800a3b79f0071
:103ec0004f7a97000440e900c07f9f00e14f400017
:103ed000e6ff3a000b003700efb097000003200028
:103ee0000e020700e10f400003003200afb297005e
:103ef0008502e800a5b79f000fa097000000e90029
:103f000080a79f000fa097000000e000f2ff3c0098
:103f10003fb6970020c1b300f20f560001003c00ed
:103f20006fe09700c07f9f00cf7897000100fb00f3
:103f30003fb1970000005100e0a79f000104e0009e
:103f400008003200efb09700e0022000f301070004
:103f5000e10f400003003200afb197008301e80099
:103f6000a3b79f004f78970097fc07000002be00a0
:103f70000203be002fa09700bfa097004fa197009b
:103f8000dfa19700e0f507002df707001e003700be
:103f90000000fb004300dd00ac1d22000c004000cf
:103fa0003002be002003be000800be000a01be00b1
:103fb00044f50700a4002000050020006033b8008d
:103fc00047f507000003b000efb09700d3010700ea
:103fd000e10f4000030032002fb297000402e80016
:103fe000a4b79f00cf7a97000500fb004300dd00d7
:103ff0000c0040003002be002003be000800be00de
:104000000a01be0036f507000205be000004be002e
:104010004f7e97000c40e900c07f9f00e14f4000b9
:10402000dbff3a000006eb0009003700efb0970015
:1040300000032000b9010700e10f40000300320037
:104040002fb097000000e800a0b79f000c06e80022
:10405000efa09700810f5600f4ff3a000d38a3003f
:10406000a10132000e00e0009f0134000006eb00c9
:10407000efb0970000022000a8010700e10f400008
:10408000030032002fb197000201e800a2b79f00a1
:104090000c06e8008e0f560093013200f4ff370043
:1040a0000d007800000cb20028003a000d00e0007e
:1040b00005003d008fb997004305be004304be00d4
:1040c00083bf9f00140037000d48a3000b0032008f
:1040d0000fba97004400be0084bf9f004f89de00e6
:1040e000cf91de000002be00020378008203780058
:1040f0000605be000404be00070037008fba970013
:104100004500780085bf9f0000047800cfc4de0022
:10411000090578008a057800e00f5400e08f5c0004
:10412000e00f5d00e08f5d0020003d003d00b3002a
:104130006000b8006011b80008045000898458007d
:104140000a0559008b855900180037000d00e00062
:1041500005003d000fbe97004c05be004c04be009c
:104160008cbf9f00110037000d48a30008003200eb
:104170008fba97004500be0085bf9f0004017800fc
:10418000840178000205be000004be00070037006d
:104190000fbe97004c0078008cbf9f000004780091
:1041a000090020000a0020000b0020003fb097000b
:1041b0000000e00007003a00e00f5400e08f5c00d0
:1041c000e00f5d00e08f5d0002003a00110020006a
:1041d000b1b79f000d0778000e0cb200000420005c
:1041e000800f57002f00320003003c000e00e0005b
:1041f000070032003f00370000082000800f570002
:1042000014003200000c2000800f570039003a00e3
:1042100014c0b300a51d22000b0037000400fb00f2
:104220004300dd00050040005001be004000be001c
:104230000040e10001c8e10002d0e10003d8e10044
:104240002b0039000442e800f44f5200f3ff3a001b
:104250002700370000012000010020006011b80095
:1042600014c0b3000040e10001c8e10002d0e10049
:1042700003d8e1001e003900450020000000d000f6
:104280008180d2000281d2008381d2008502e900c0
:10429000faff3a000442e800f04f5200f1ff3a0002
:1042a0001300370080002000010020006011b800da
:1042b00014c0b3000040e10001c8e10002d0e100f9
:1042c00003d8e1000a0039003c0020000000d000c3
:1042d0008180d2000281d2008381d2000c06e900e5
:1042e000faff3a000442e800f54f5200f1ff3a00ad
:1042f000c47f9f00cf7897000100fb003fb197007b
:10430000820f500002003d00c27f9f000400370072
:10431000bfb19700808f510001003d00b0b79f00f2
:104320004fb297000400e000040032006380660092
:10433000020032000402e900c4b79f000de8a300a8
:104340000b003200cfb297003fb697008c8f52001f
:1043500003003c000000eb00c0b79f0004003700e2
:10436000cfb097003fb1970082805000c1b79f0047
:10437000cf7997000300fb000002eb0094a79f0099
:10438000cfb29700808f52000200340000805200ac
:1043900090a79f000d28a30037003200e18066003f
:1043a0000d18a3000c003200d00220000100e00034
:1043b00001003a000080e900efb09700d700070045
:1043c000e10f40000e0032002fb697000c06e80007
:1043d000acb79f000a0037000100e000080032007f
:1043e000efb0970000022000cc000700e10f400072
:1043f000030032002fb097000000e800a0b79f0034
:104400009fa097000100e0000f0032000006eb00c3
:10441000efb0970000032000c0000700e10f40004c
:10442000030032002fb197000201e800a2b79f00fd
:104430000c06e8009fa19700830f5600f4ff3a0096
:104440000002eb0094a79f00bfb29700c328dd00d5
:10445000201d22008080400091af9f004228dd0097
:104460006400500080af9f006328b900f0a79f0050
:1044700063065000820037001fa697000c00e00082
:1044800011003200688066000f003a0000067800d4
:10449000efb0970000022000a0000700e10f4000ed
:1044a000030032002fb097000000e800a0b79f0083
:1044b0000c06e8009fa09700810f5600f4ff3a0019
:1044c0000001eb0092a79f00e18066000d18a30099
:1044d0000c003200d00220000100e00001003a0090
:1044e0000080e900efb097008c000700e10f40006a
:1044f000d5ff3200afb197008301e800a3b79f005a
:10450000d1ff37000100e000cfff3200efb097008d
:104510000002200081000700e10f4000caff3200c6
:104520002fb297000402e800a4b79f00c6ff37002f
:1045300000042000800f57003000320003003c00d0
:104540000e00e000070032003d00370000082000a8
:10455000800f570011003200000c2000800f570020
:1045600037003a001fa897003002be002003be00ab
:104570000800be000a01be00d2f30700a40020001c
:10458000050020006033b800d5f3070004c3b30072
:1045900004424000c47f9f002900370055332200a9
:1045a000d5b79f000d58a30002003a0060342200e6
:1045b000d0b79f0014002000050020006033b80031
:1045c0008fa897008100e900050033000402d000a5
:1045d0008582d2000683d2008783d200f9ff37009c
:1045e0000800be000a01be00b6f307006f006000bd
:1045f0005fb197006240780010003700140020007f
:10460000050020006033b8008c0178008301e900c8
:10461000050033000402d0008582d2000683d20058
:104620008783d200f9ff37000800be000a01be00f0
:10463000a4f30700674060000043b000c07f9f0004
:104640004f7a97000400fb00efb09700330007009b
:10465000e10f400003003200afb297008502e8008e
:10466000a5b79f001fa897006800500090af9f005b
:104670008fa89700e480500081af9f00630656002a
:10468000d0ff2f003fb197000090b900ffa1970025
:104690000080410063005000800f5600a4ff3a00e4
:1046a0000d38a300100032001fa297000400e000a4
:1046b0000d0034000006eb00efb097000002200070
:1046c00016000700e10f400003003200afb2970070
:1046d0008502e800a5b79f000c06e8001fa0970020
:1046e000800f5600f4ff3a007fb19700b240780087
:1046f000f2b79f00c17f9f000104e00014fb3a0065
:104700002fb097004f0778004f06be004f05be0040
:104710004f04be008f03b10000000600889fbe005a
:104720000001780001047800b10090000118a30096
:104730003d0032000198a30003003a0018009000e9
:104740000000e00038003a000190a0003104980019
:1047500082047800f90fb200180090000000e00019
:1047600002003a0028009000000c7800ea8f540004
:1047700006003a00380090000078a30003003a00d9
:1047800088007800d0002000e4ff07009800900027
:1047900058009000808f50000b0032000100e800ac
:1047a000100498001800780009587800000c780070
:1047b00011c0b300e041220001487800ea8f5400a4
:1047c00006003200190037008800780009407800a0
:1047d000a200070080047800140037003800900021
:1047e0000088a3001100320018019000a80090007a
:1047f0004800900020ef070098009000810f5000c3
:1048000004003200380090000003b3003004980028
:104810008084eb000000eb0010049800280090005a
:10482000000c7800010037008084eb00090078005c
:104830004f04be0000000600881f780000047800c6
:10484000b00090000148a30007003a000108a3004f
:10485000050032000198a30008003200100090000b
:104860000000e00005003200380090000040a00089
:10487000300498008080eb00200037000190a100f8
:1048800031049800180090000000e0000600340099
:104890000000e9001004980018007800b080fb00c8
:1048a000000c780006003700380090000068a30074
:1048b000edff3a0008007800ab00070080007800a8
:1048c000380090000078a3000c003a00fa8f5000e6
:1048d00008003a00280090000000e000e2ff3200eb
:1048e000180090000000e80010049800180ce9007f
:1048f000ddff3700ed8f5000e2ff3200010078004d
:104900004f0478000000060080017800e10f4000ad
:1049100017003200310090000008a300140032009c
:104920000098a30012003a00210290000400e00069
:104930000f0032001101900051009000800f5100d3
:104940000b00320011007800840f500002003a0082
:104950008008e800020037000200e800900098009c
:104960001100e90080087800034878000100370052
:104970008081eb000300780000000600889fbe00e5
:104980008a1f780000047800300090006300600007
:104990002400320008007800c100070038059000ac
:1049a00080ef2f0000006500300498002800900080
:1049b0000000e00004003200e804650002003a0054
:1049c000f00007002904980048009000e1ee07007d
:1049d000e10f400013003200b80090000102b20065
:1049e00010003a000ac8a30018003200b02181006c
:1049f0000000e0001500320000017800810478001a
:104a0000012a200012289000880f50000700320071
:104a10004205b0004905b000818f54000b00320000
:104a2000f8ff37000080eb00090037000200780033
:104a3000d1ee0700b0218100090040008000eb00aa
:104a40001128980001007800010037000000eb00f9
:104a50004f0578004f04be00000006000200fa0077
:104a6000889fbe00a0ff9f0001047800b100900065
:104a7000810478000904b200020032000000fb004b
:104a8000360037000118a30005003a000103b30007
:104a900031049800190498000080eb002f003700c3
:104aa000580090000000e00006003a004800900026
:104ab00012002000e68057006fee070019049800ee
:104ac00024003700280090000000e00008003a00b1
:104ad000a041220020049800000c78002000200053
:104ae00050049800100498000130a0003104980090
:104af00018019000a8009000480090005eee0700aa
:104b000028009000000c78000080eb001004980052
:104b100018007800aff8970001587800000c780072
:104b20002ff89700ea4f50000a003a003800900032
:104b30000088a3000700320018019000a800900030
:104b4000480090004cee070019049800a80090005f
:104b5000010c7800aff897000100fb004f04be0085
:104b60000080fa00000006000200fa00889fbe00e4
:104b70008a1f7800000478000000eb001004980001
:104b8000380090008080eb000008a3003f00320056
:104b9000e04122001004e00010003200a93522009c
:104ba0000a3622001a0078006c0545002010b20079
:104bb00021102000810f500002003a000900780007
:104bc00037000700ec844400e0372200808f540057
:104bd000f4ff3a00e04122000048eb00480090005a
:104be000580190000200e0000d003a001204980005
:104bf00012002000e880570068ee0700e10f500027
:104c000003003a000ff897008080fb001f00370078
:104c1000380090000040a0003004980012003700d7
:104c2000a80090005dee0700100498000000e0006e
:104c300003003200e10f40000d003a00030037008e
:104c4000380090000040a0000200370038009000bb
:104c50000003b30030049800a8009000010c780015
:104c60000000eb00100498008080eb000700370084
:104c7000a8009000010c78000000e90010049800e2
:104c800001007800b080fb00000c78000100780083
:104c90004f0578004f04be000080fa0000000600b7
:104ca000881f780000047800300090000008a300fe
:104cb00007003200800078000120b20004003a00b2
:104cc00011049800a8009000010c7800170037002c
:104cd0000018a300190032000098a300170032004a
:104ce000a80090000100e0001400320018019000bc
:104cf0000200e0001100320048009000deed0700e5
:104d000098009000810f500003003200380090009e
:104d10000003b300300498000000eb00100498007a
:104d200028009000000c7800380090000058a30084
:104d3000020032000080eb00010037000000eb00b1
:104d40004f04780000000600a12181000100e0006e
:104d50000300320011007800a02189000300370011
:104d600020002000a6ed070080007800e18f4000c1
:104d700002003a00906e260010458800010078007d
:104d800000000600a121810001087800a02189000f
:044d90000000060019
:020000040000fa
:0200000401f009
:04000000e6bf000057
:020000040000fa
:0200000401f009
:04000400ff7f00007a
:020000040000fa
:0200000401f009
:040008007fff000076
:020000040000fa
:0200000401f009
:04001400ffff0000ea
:020000040000fa
:10000800b0010000b0010000b0010000b001000024
:10001800b0010000b0010000b0010000b001000014
:1000280078410100b0010000b0010000b0010000fb
:10003800b0010000b001000000410100b001000063
:10004800b00100008a4d0100f64b01008e16010038
:10005800b0010000b0010000522d0100b001000005
:10006800b0010000b0010000b0010000b0010000c4
:10007800b0010000024e0100d2460100b0010000ac
:10008800c64d0100564c0100b0010000b00100004f
:10009800b0010000b0010000b0010000b001000094
:1000a800b0010000b0010000b0010000b001000084
:1000b800b0010000b0010000b0010000b001000074
:1000c800b00100000a4b0100b0010000b0010000bf
:1000d800b0010000b0010000b0010000b001000054
:1000e800b0010000b0010000b0010000b001000044
:0800f800b0010000b00100009e
:020000040000fa
:10010800b0010000b0010000b0010000b001000023
:10011800b0010000b0010000b0010000b001000013
:1001280078410100b0010000b0010000b0010000fa
:10013800b0010000b001000000410100b001000062
:10014800b00100008a4d0100f64b01008e16010037
:10015800b0010000b0010000522d0100b001000004
:10016800b0010000b0010000b0010000b0010000c3
:10017800b0010000024e0100d2460100b0010000ab
:10018800c64d0100564c0100b0010000b00100004e
:10019800b0010000b0010000b0010000b001000093
:1001a800b0010000b0010000b0010000b001000083
:1001b800b0010000b0010000b0010000b001000073
:1001c800b00100000a4b0100b0010000b0010000be
:1001d800b0010000b0010000b0010000b001000053
:1001e800b0010000b0010000b0010000b001000043
:0801f800b0010000b00100009d
:020000040000fa
:104d94000c070000574500004c4300004f4d000035
:104da40045200000746f0000207400006865000056
:104db4002053000065720000436f00006d20000066
:104dc400707200006f7400006f6300006f6c00006d
:104dd400206f00006e200000652d0000507500005b
:104de400636b00000d0a0000746800006520000079
:104df40045500000464c000020650000647500002a
:104e040063610000746900006f6e0000207200008e
:104e14006f6200006f74000020740000797000005d
:104e2400652000002248000022200000666f000078
:104e340072200000686500006c7000000d0a00001c
:104e4400006100002c250000642c00002564000093
:104e54002c250000640d00000a000000622c0000f4
:104e6400256400000d0a0000004200002c2500000b
:104e7400640d0000006200000d0a000000630000e1
:104e84002c250000640d00000a000000442c0000e2
:104e9400256400002c250000640d0000006400005f
:104ea4000d0a0000006500002c250000642c0000a1
:104eb400256400000d0a0000004600002c250000b7
:104ec400640d0000006600000d0a00000067000089
:104ed4002049000052200000636800006563000060
:104ee4006b2000003a200000307800002578000094
:104ef4002c200000616400006472000065730000ef
:104f0400732000003a20000030780000257800006b
:104f14002c2000006461000074610000203a00004d
:104f24002030000078250000780d00000a00000001
:104f34000a0000002241000022200000202000007e
:104f440020200000202000002020000041630000f9
:104f5400636500006c650000726f00006d65000001
:104f640074650000720d00000a0000002262000057
:104f74002209000009420000617400007465000009
:104f840072790000206f00006b3f00000d0a0000e2
:104f94000022000043220000202000002020000006
:104fa400202000002020000020530000656c000039
:104fb40065630000746f000072200000706f0000d1
:104fc40073690000746900006f6e00000d0a000030
:104fd40000220000442c0000232c000023220000a7
:104fe40020200000202000002053000065740000f1
:104ff400206d00006f7400006f72000020730000c9
:105004007065000065640000206c000065660000a7
:10501400742c00007269000067680000740d0000c1
:105024000a00000022450000222000002020000089
:105034002020000020200000202000004765000000
:10504400742000006d6f0000746f00007220000077
:105054007370000065650000642000006c6500004a
:10506400667400002c720000696700006874000018
:105074000d0a00000022000047220000202000004a
:1050840020200000202000002020000020490000f3
:10509400522000007265000063650000697600001c
:1050a400657200000d0a0000002200004822000082
:1050b4000920000020200000202000004865000096
:1050c4006c7000000d0a0000002200004b2200005a
:1050d40020200000202000002020000020200000cc
:1050e40020430000616c00006962000072610000ee
:1050f4007465000020700000726f00007869000081
:105104006d6900007479000020730000656e000072
:10511400736f0000727300000d0a0000002200008b
:105124004c2c0000232c000023220000202000002f
:1051340020200000204c000065640000206e000068
:10514400756d000062650000722c0000303d0000a7
:105154006f66000066200000313d00006f6e0000a5
:10516400203200003d6900006e7600006572000088
:10517400736500000d0a0000002200004d220000ab
:10518400202000002020000020200000202000001b
:10519400204600006c6f00006f7200002073000056
:1051a400656e0000736f0000727300000d0a00004a
:1051b400002200004e2200002020000020200000d9
:1051c400202000002020000020500000726f00000a
:1051d400786900006d690000747900000d0a000010
:1051e400002200004f2200002020000020200000a8
:1051f4002020000020200000204c000069670000ef
:105204006874000020730000656e0000736f000076
:10521400727300000d0a000000220000502c0000f0
:10522400232c000023220000202000002020000066
:105234002053000065740000206d00006f740000ae
:105244006f720000207000006f730000697400002a
:10525400696f00006e2000006c6500006674000039
:105264002c72000069670000687400000d0a0000d9
:105274000022000051220000202000002020000015
:10528400202000002020000020470000657400005a
:10529400206d00006f7400006f7200002070000029
:1052a4006f73000069740000696f00006e200000d5
:1052b4006c650000667400002c72000069670000d1
:1052c400687400000d0a0000002200005222000051
:1052d40020200000202000002020000020200000ca
:1052e4002052000065730000657400002065000012
:1052f4002d700000756300006b0d00000a000000b3
:105304002253000022200000202000002020000062
:105314002020000020200000537400006f70000063
:10532400206500002d700000756300006b200000f4
:10533400616e00006420000074750000726e00004d
:10534400206f000066660000206c000065640000a9
:10535400730d00000a000000225500002220000006
:105364002020000020200000202000002020000039
:1053740047650000742000006d690000637200003e
:105384006f700000686f00006e650000206100000f
:105394006d7000006c6900007475000064650000a5
:1053a4000d0a000000220000562200002020000008
:1053b40020200000202000002020000020560000b3
:1053c40065720000736900006f6e0000206f0000ba
:1053d4006620000053650000724300006f6d0000fa
:1053e4000d0a0000006900002c250000642c000058
:1053f400256400002c250000642c000025640000b6
:105404002c250000640d00000a0000004a2c000056
:10541400256400002c250000642c00002564000095
:105424002c250000642c0000256400002c250000bd
:10543400640d0000006a00000d0a0000006b00000b
:105444002c20000053740000617200007469000095
:105454006e67000020630000616c00006962000058
:1054640072610000746900006f6e0000202d00005e
:1054740020520000656d00006f760000652000007a
:10548400616e0000792000006f6200006a65000010
:1054940063740000206900006e2000007365000042
:1054a4006e7300006f7200007320000072610000d0
:1054b4006e670000650d00000a0000006b2c000000
:1054c40020430000616c000069620000726100000a
:1054d400746900006f6e000020660000696e0000b1
:1054e4006973000068650000640d00000a00000094
:1054f4004c2c0000256400002c250000640d0000e5
:10550400006c00000d0a0000006d00002c25000056
:10551400642c0000256400002c250000642c00008d
:10552400256400002c250000640d00000a00000022
:105534006e2c0000256400002c250000642c000063
:10554400256400002c250000642c00002564000064
:105554002c250000642c0000256400002c2500008c
:10556400640d00000a0000006e2c00002564000099
:105574002c250000642c0000256400002c2500006c
:10558400642c0000256400002c250000642c00001d
:10559400256400002c250000642c00002564000014
:1055a4002c250000640d00000a0000006f2c000090
:1055b400256400002c250000642c000025640000f4
:1055c4002c250000642c0000256400002c2500001c
:1055d400642c0000256400002c250000640d0000ec
:1055e4000a0000006f2c0000256400002c25000038
:1055f400642c0000256400002c250000642c0000ad
:10560400256400002c250000642c000025640000a3
:105614002c250000642c0000256400002c250000cb
:10562400640d00000a000000502c000025640000f6
:105634002c250000640d0000007000000d0a00001d
:10564400007100002c250000642c0000256400007b
:105654000d0a0000007200000d0a00000073000033
:105664000d0a0000005400002c2500006400000016
:10567400740d00000a000000752c00002564000071
:105684002c250000642c0000256400000d0a000095
:10569400007600002c56000065720000736900005b
:1056a4006f6e0000203100002e3200002e32000008
:1056b400204100007567000075730000742000002d
:1056c40032300000303800002047000043740000ee
:1056d400726f00006e690000630d00000a00000094
:1056e40048570000207600006572000073690000ce
:1056f4006f6e00003a200000255800000d0a0000db
:10570400005700002c250000642c000025640000d4
:105714002c250000640d0000007700000d0a000035
:10572400005900002c250000642c000025640000b2
:105734000d000000792c0000256400002c250000d9
:10574400640d00000a000000792c000025640000ac
:105754000d0a000000250000643a00002025000026
:10576400640d00000a0000007a2c0000436f000062
:105774006d6d0000616e0000642000006e6f00001b
:1057840074200000666f0000756e0000640d000058
:105794000a000000536500006c650000637400009b
:1057a4006f720000207000006f730000202500005d
:1057b400640d00000a0000000c0700000a0a000043
:1057c4000d570000454c0000434f00004d450000bc
:1057d400207400006f200000746800006520000041
:1057e400707200006f7400006f6300006f6c000043
:1057f400206f00006e200000652d00005075000031
:10580400636b0000204200006c75000065740000aa
:105814006f6f00007468000020630000616c00007a
:105824006962000072610000746900006f6e00001c
:10583400000a00000d500000726500007373000040
:1058440020480000202800007265000074750000e4
:10585400726e000029200000666f000072200000b4
:10586400686500006c700000000a00000d50000024
:10587400494e0000206300006f64000065200000b2
:105884003d20000025730000004f00002c2500007f
:10589400730a0000000a00000d4500007272000047
:1058a4006f720000207700007269000074740000b9
:1058b400696e000067200000504900004e0000009f
:1058c4004d2c0000257300000a0000000a0d0000a2
:1058d40045720000726f00007220000077720000b1
:1058e40069740000746900006e670000204e0000b7
:1058f400616d0000650000000a0d000046720000a2
:10590400696500006e6400006c790000206e000080
:10591400616d0000652000003d200000257300003b
:10592400005300002c250000730a000000650000ed
:105934002d700000756300006b5f0000257300008c
:10594400000a00000d520000657300006574000039
:10595400206f00006b20000046690000726d00009b
:105964007761000072650000203d000020250000e2
:10597400640000000a0d00002022000046220000fe
:105984002046000061630000746f0000727900001b
:10599400207200006573000065740000000a0000b6
:1059a4000d200000224d00002c4e0000616d00000f
:1059b4006522000020570000726900007465000031
:1059c400204e0000616d000065200000666f00003d
:1059d4007220000046720000696500006e640000d9
:1059e4006c790000204200006c75000065740000b2
:1059f4006f6f000074680000206e0000616d00008d
:105a0400650000000a0d0000202200004e22000064
:105a14002052000065610000642000006163000002
:105a240074750000616c000020460000726900007b
:105a3400656e0000646c000079200000426c000078
:105a440075650000746f00006f740000682000002a
:105a54006e6100006d650000000a00000d2000006a
:105a6400224f00002c230000222000005772000067
