:020000040000fa
:080000000001040000000000f3
:020000040000fa
:100200006f68220080792200000188000000000051
:10021000050007000c000700ac030200000000000e
:100220000040da000000fe004440a9000002200067
:100230000000e0000300320000002000a001880060
:100240004440a8000000060080e7220001002000d2
:100250001600370062004000e080480091018800ed
:100260009001ba0062004000e080480091018800df
:100270009002ba0062004000e08048000002eb00fb
:100280006028e10005003a008301e900070033001f
:10029000038009000059eb00040037006128e100e9
:1002a000010032000082eb00050007009101880088
:1002b0001001ba000200e000e6ff3a00000005006d
:1002c000910188008002780062004000e0804800d0
:1002d0003559ba008301e900080032002559ba00f7
:1002e0008301e900050032000400e000f4ff320061
:1002f00015d9ba008301e900f1ff3a0000000600b9
:100300004e0f0400000000007e1d040000000000ed
:10031000621e040000000000889fbe008004780078
:10032000725880000200e0000200320002007800f3
:100330000c00370000b1200003003700918f5400fb
:10034000240036000180e800900078000100e00001
:10035000faff3a000f003700918f54001d0036005d
:100360000180e800900078000100e000faff3a0008
:100370001201780000b1200003003700918f540073
:10038000140036000180e80090007800828f500051
:10039000faff3a0068588000890f540001003100cc
:1003a00009047800080078007c0007000000e000e5
:1003b00004003a00890f5400050032000804d100ff
:1003c000f5ff37000818780041000700d4ff370018
:1003d0000000eb004f04be0000000600881f7800fc
:1003e000630440000800a100800f54002300360081
:1003f000e30f540001003e00480020000800780090
:10040000c5ff0700800078000000e0001b003200fc
:10041000100178009201780064805100880f50002c
:1004200003003100120090008008780007003700b8
:1004300008004100800878009201900013009800a5
:100440001100780012081400080978009100780063
:100450000100e00005003200110090000000e00003
:10046000020032000180e800010037000000eb00cc
:10047000705888000280e800010037000000eb009f
:100480004f047800000006000004780006003700e2
:1004900082004100a0588000e10078000200e800de
:1004a000905888000100010092588000b0588000e8
:1004b000800f5100f6ff390000a72000a0588800e7
:1004c00020022000b0588800080078003a00070099
:1004d0000000e000300032008080e90091027800e6
:1004e000e38f52002c0036000508a3002a003a00d2
:1004f000825880000200e00002003200828f50002b
:100500000400310002087800815888001600370086
:1005100003017800920190000300e0000200320025
:10052000818f5100faff3900120278000400410067
:10053000808f500018003900810f500003003a00ee
:100540000509420082007800070037000300e00040
:100550000300320005804000808f51000e003900fa
:100560009300980011019800110190000200e00032
:100570000900320011804000820f500006003a004e
:100580000e2bef001100900011017800900841003f
:100590001000900090009800000006000000e000ad
:1005a000030034000c000700e10f400001003a0096
:1005b0000000eb00000006000c02e20004003d0019
:1005c0000f42ab00020032000f02ab00feff320010
:1005d0000040da00feff3700889fbe0080047800ec
:1005e000200be20004003a000000eb0010000700be
:1005f0000000e0000a003500005980000900e0001a
:1006000002003a0000047800060037000004780079
:1006100009004000060007000000e00001003d0066
:100620000084eb00080078004f04be0000000600c4
:10063000800078000000e00004003a0060482200da
:100640000059880001017800060037000081eb00a6
:1006500060682200808f500002003e00015988002f
:100660000001eb000200780000000600839f680094
:100670000100e00002003d0060001000e080180072
:100680000300e00002003d0060011100e08119005c
:10069000050007004f00e00002003b006000100072
:1006a000e0801800000006006022b800060220006a
:1006b0000000d0008180d2000482d2008582d20066
:1006c0000000a0000202520083825a0003003b0097
:1006d0000202420083824a000000a1000603e900f2
:1006e000f3ff3a00000006000000fa00e6c2bf0077
:1006f0000080fb004600de00614060000081fb00de
:10070000e7c2bf000080fb000000d1006140600034
:100710000080fb000000400080007800e7c2bf00be
:10072000614060000080fb0000804000000040004d
:1007300080007800e6c2bf000080fb004700de00ba
:100740000080fb00008040000000400000004100ed
:100750000080fa00000006000000fa00d40f070035
:1007600040c7bf00614060000004e00002003200aa
:100770004007a9000000fe00dbff07000000e000ca
:1007800004003a00110020000000eb0027040700dd
:10079000ffff370041010700ffff37000200fa00aa
:1007a000100407000000e000fdff32000e0078009a
:1007b000100407000000e000fcff32001e4078003b
:1007c0000000fb000080fa00000006000600fa00ae
:1007d000040407000000e000fdff32006400470051
:1007e000040407000000e000fcff3200fd030700e6
:1007f0000000e000fdff3200640047000000e80058
:10080000fc0307000000e000fbff3200640047002b
:10081000104078000000fb001007980064004700bb
:10082000104090000000fb00000f78001e007800d0
:100830004801dd009e009000f00f20000080600065
:10084000000071000080fa00000006000400fa00b9
:10085000100798001e0090008040780000c0eb0058
:1008600000c06000004f78009e00900000f02f0054
:10087000008060004800de00104798001100200052
:100880000e007800610907006c0907000000e00015
:10089000fdff3a000e00e800110020005b09070090
:1008a000660907000000e000fdff3a000080fa0042
:1008b000000006000200fa00004f7800110020003e
:1008c0000e007800510907005c0907000000e000f5
:1008d000fdff3a000080fa00000006000400fa0064
:1008e000baff070010079800b8ff0700000f780054
:1008f0009e009000803e2000808f50000a003c0047
:100900009e00900080c12f00808f500006003500af
:10091000803e20009e0f100003003c0080c12f008d
:100920009e0f100003003d0010c0b300e1ff070060
:10093000060037001e0090009a0d07001e00780088
:100940005b0d070010c0b300daff07000080fa005b
:10095000000006000400fa00fa0d070010079800d6
:10096000ee0d0700000f78000000eb00f90d070006
:100970000000eb00ed0d07001e009000b3ff070024
:100980001e007800b1ff07000080fa00000006009a
:100990000000fa000000eb00820d07000000eb00f1
:1009a000430d07000000eb00ea0d07000000eb001c
:1009b000de0d070010c0b300beff07000080fa0084
:1009c000000006001200fa00881f78000000eb000b
:1009d000000f7800090037001e0478001e00780020
:1009e000070a0700000178008e80e8000800440034
:1009f00001004000020878001e0fe800700020008f
:100a00009e0f1000f4ff34000000eb00000f780090
:100a1000060037001e0078008e80e80000004000cd
:100a20006100780089ff07001e0fe80070002000b9
:100a30009e0f1000f7ff34004f0478000080fa008a
:100a4000000006000000fa0020b220000614070093
:100a5000601407000000e000fdff3200c058800075
:100a60008000780020b22000e8080700f3080700a3
:100a70000000e000fdff3a000080fa0000000600e0
:100a80000400fa0045ff07003047980043ff0700c5
:100a9000204798000000eb00000f78000f0037009f
:100aa0003e4090008000fb001e0078000088de00c1
:100ab000610060000004e000040032001e007800c5
:100ac0001100200059030700030037001e007800c2
:100ad0008000eb00550307001e0fe80070002000a7
:100ae0009e0f1000eeff34002e4090000000fb002f
:100af000610060000004e0000300320010002000ec
:100b0000c6040700020037000000eb00c304070022
:100b10002e4090000000fb000000d100610060004a
:100b20000004e00003003200100020009b040700d6
:100b3000020037000000eb009804070010c0b3006b
:100b40005cff07000080fa00000006000000fa00c9
:100b5000c01220003dff07000080fa0000000600e0
:100b60000600fa00c00d2000200798008000eb006e
:100b70002e00900055130700104798001100200028
:100b80002e00900051130700004f78001e40900087
:100b90000080fb00c800dd001e80fb0000807000ac
:100ba000100798001e0090000080fa000000060068
:100bb0001000fa00000a0700e9ff070023ff070002
:100bc00002ff07007007980000ff07006007980009
:100bd000fefe070050079800fcfe07004007980043
:100be000fafe070030079800f8fe0700200798007b
:100bf000f6fe0700100798001e039000ae0290005a
:100c00003e029000ce0190005e019000ee00900048
:100c10007e0090009c0907001100200010002000b9
:100c2000c5090700db0907001e0090000000e00076
:100c300003003a0010002000000f78000200370087
:100c400020002000000f78005e0090003e01900020
:100c5000110009000280d800800078004e0090004a
:100c60002e019000811f7800110009000280d80039
:100c700001017800cf0078000088b900800078007a
:100c80001e0078000088b900c058880010c0b3006a
:100c900008ff07000080fa00000006000800fa00c4
:100ca000b9010700790c0700300907002f0d070074
:100cb000e100200080e62a00540807000000eb0055
:100cc00020079800100037000000eb001007980084
:100cd00006003700110020002e009000d30207000c
:100ce0001e0090000000e800100798009e00900091
:100cf000f0e12400808f5000f6ff36002e009000b7
:100d00000000e800200798002e009000e70f500038
:100d1000edff36000000eb002007980010003700c0
:100d20000000eb0010079800060037008000eb0081
:100d30002e009000bd0207001e0090000000e80099
:100d4000100798009e009000f0e12400808f500072
:100d5000f6ff36002e0090000000e8002007980003
:100d60002e009000e70f5000edff36000000370026
:100d70008afe0700004f78001e00fb003007980035
:100d80003e009000f40f50001c0032003e00900026
:100d9000f40f50000a003c003e009000e20f5000ab
:100da000220032003e009000f30f5000110032008c
:100db0003e009000e10f50001a003200ecff3700b7
:100dc0003e009000f60f50000e0032003e009000f2
:100dd000f60f50000d0035003e009000f70f500058
:100de0000c0032003e009000f80f50000b00320063
:100df000dfff3700b9fe0700ddff3700d5fe070033
:100e0000dbff3700effe0700d9ff3700e0fe0700e9
:100e1000d7ff37000bff0700d5ff370018ff07008b
:100e2000d3ff370049ff0700d1ff370060ff0700fd
:100e3000cfff37002400fa00000f9800110f980030
:100e4000220f9800330f9800440f9800550f980018
:100e5000660f98000e08900070004000000f980088
:100e60001e08900068004000100f98005e08900077
:100e70000000e000030032004e0890000000e00097
:100e800003003a000080eb00700f98001f0137004c
:100e90008e0890002e08900080804000002d2000d9
:100ea000808f5000030036008080eb00710f9800a7
:100eb000160137009e0890003e0890008080400098
:100ec000801e2000808f5000030036000080eb0061
:100ed000700f98000d0137002e0890004e09900009
:100ee000110009000280d8008000fd000000e00031
:100ef000030032008080eb00710f9800030137007f
:100f00003e0890005e099000110009000280d800a0
:100f10008000fd000000e000030032000080eb00d4
:100f2000700f9800f90037005e08900063006000c1
:100f30000000e00039003a004e08900063006000b5
:100f40000000e00011003a0000082000000f7800c7
:100f500040002000100798005e0890004200de006c
:100f6000300798004e0890004200de0020079800ed
:100f70001e08900064005000100f98000e089000aa
:100f800064005000000f98005a0037004e0890008f
:100f9000610060000000e00011003a000004200041
:100fa000000f780020002000100798005e089000d5
:100fb0000000d100300798004e0890000000d100da
:100fc000200798001e0890000080e900100f98008c
:100fd0000e0890000080e900000f980045003700df
:100fe00000022000000f7800100020001007980079
:100ff000de089000310798004e0890002007980006
:101000001e0890000000e900100f98000e089000e4
:101010000000e900000f9800360037005e089000dd
:10102000610060000000e00024003a004e089000db
:10103000610060000000e00011003a0000042000a0
:10104000000f780020002000100798005e08900034
:101050000000d100300798004e0890000000d10039
:10106000200798001e0890000080e900100f9800eb
:101070000e0890000080e900000f98001d00370066
:1010800000022000000f78001000200010079800d8
:10109000de089000310798004e0890002007980065
:1010a0001e0890000000e900100f98000e08900044
:1010b0000000e900000f98000e003700100020002b
:1010c0001007980000022000000f7800ce08900062
:1010d000210798005e089000300798001e089000d5
:1010e0000000e900100f98000e0890000000e900d1
:1010f000000f98002e0090000000e90060079800a3
:101100003e0090000000e900700798002e08900053
:101110004e099000110009000280d8005007980085
:101120003e0890005e099000110009000280d8007e
:1011300040079800102d20001e01900011000900aa
:101140000200d800800078001e0190000e08900078
:10115000811f7800110009000280d8000101780089
:10116000cf007800b80907000000e000030032005b
:101170008080eb00710f980064003700901e200003
:101180001e019000110009000200d80080007800c4
:101190001e0190001e089000811f780011000900b8
:1011a0000280d80001017800cf007800d109070043
:1011b0000000e000030032000080eb00700f980098
:1011c00052003700811e20001e089000cf09070042
:1011d0000000e000030032008080eb00710f9800f7
:1011e0004a0037006e0890000000e00018003a0046
:1011f0001e00780000179800000420008e10900058
:10120000808f50000c003200000820008e109000eb
:10121000808f50000b003200000220008e109000e2
:10122000808f5000010032002000370000c9b30059
:10123000b70807001d00370000c5b300b408070059
:101240001a00370000c1b300b108070017003700cb
:101250001e00780010179800000420009e109000d7
:10126000808f50000c003200000820009e1090007b
:10127000808f50000b003200000220009e10900072
:10128000808f5000010032000800370000cbb3000f
:101290009f0807000500370000c9b3009c0807003d
:1012a0000200370000c5b300990807001e0078004f
:1012b000804078006e089000370907000000e000c9
:1012c000030032000080eb00700f98000f00370021
:1012d0006e08900010000700000178007e02900068
:1012e000ee019000de0090004e009000ea11070031
:1012f0000000e000030032008080eb00710f9800d6
:10130000020037000000eb00700f98007e0890008c
:101310000080fa00000006000600fa00000f7800c6
:101320001e007800200798002e009000e10f50006a
:101330000a0032002e009000e20f50000a00320036
:101340002e0090000000e00001003200090037008c
:10135000100020001007980008003700200020002f
:1013600010079800050037002000200010079800a3
:101370000200370010002000100798001e009000a7
:101380000080fa00000006000000fa000000eb00f8
:10139000800888000111200091407800f0ccb30053
:1013a00000c0600010e1b7000000eb0030088800ca
:1013b000205c20006008880084c0a9008cc0a800c0
:1013c00011e1a8000080fa00000006000000fa0009
:1013d00011e1a9000080fa00000006000800fa00f0
:1013e0001007980021079800d0588000000f78005f
:1013f0000b0037001e007800b00090001e00900027
:10140000808f500003003a0011002000310798003f
:101410001f0037001e007800c0009000010f780008
:101420001e00e000f3ff3a00a0002000ebfb0700e5
:10143000000f78001e00e00002003a0010002000bb
:1014400011fc0700ae0090001e0078000108780033
:101450009e0078000000eb00900098009e0078004d
:1014600010c0b300c04098001e0078009e0090009d
:1014700031009800d15880001e007800410098008b
:101480001e007800d0588800110020003107980015
:101490003e0090000080fa00000006000800fa00fc
:1014a000200798000000eb0010079800d05880003b
:1014b000000f78001a0037001e007800b00090007e
:1014c0002e009000808f500010003a001e00900007
:1014d0000000e000050032001e007800c00090000f
:1014e0001e00900041009800030037001e007800a5
:1014f00040009000d05888001e007800f4fb0700e0
:101500001100200031079800090037001e00780004
:10151000100798001e007800c0009000010f7800ae
:101520001e00e000e4ff3a00200020003007980091
:101530003e0090000080fa00000006000800fa005b
:101540001007980021079800d0588000000f7800fd
:101550000e0037001e007800b00090001e009000c2
:10156000808f500006003a00ae0090001e00780008
:1015700001087800110020003107980007003700ab
:101580001e007800c0009000010f78001e00e000ef
:10159000f0ff3a0020002000300798003e00900045
:1015a0000080fa00000006000600fa00100798000c
:1015b000d0588000000f78000e0037001e00780021
:1015c000b00090001e009000808f500006003a008e
:1015d0009e0078000000eb009000980011002000b1
:1015e00021079800070037001e007800c000900017
:1015f000010f78001e00e000f0ff3a0020002000fc
:10160000200798002e0090000080fa0000000600dd
:101610000600fa0010079800d0588000000f7800ec
:101620000e0037001e007800b00090001e009000f1
:10163000808f500006003a009e0078000040eb00ca
:10164000c0409800110020002107980007003700d3
:101650001e007800c0009000010f78001e00e0001e
:10166000f0ff3a0020002000200798002e00900094
:101670000080fa00000006000600fa00100798003b
:10168000d0588000000f78000e0037001e00780050
:10169000b00090001e009000808f500006003a00bd
:1016a0009e00780010c0b300c040980011002000d8
:1016b00021079800070037001e007800c000900046
:1016c000010f78001e00e000f0ff3a00200020002b
:1016d000200798002e0090000080fa00000006000d
:1016e0003600f800809fbe00829fbe00849fbe002f
:1016f000869fbe003400f80000c0b300a00188003f
:101700000200fa00d0588000000f780084c0a900c1
:101710001e0037001e00780040409000e14f50004e
:1017200017003a001e007800100078000000e0006a
:10173000130032001e007800100090008000e800c6
:101740001e007800110098001e0078001000900024
:10175000800078001e007800100078000000e9008a
:10176000808f5000060036001e0078003000900088
:10177000000001009e0078000000eb00900098003f
:101780001e007800c0009000010f78001e00e000ed
:10179000e0ff3a000080fa003400f9004f03be0079
:1017a0004f02be004f01be004f00be003600f900e0
:1017b00000400600809fbe008520a9006053800085
:1017c000f003b200c1a22000810040000000eb0045
:1017d00012c2bf00804878006c2aec004f00be00a7
:1017e00000400600605380007153800001005000eb
:1017f0000000060061538000725380000208e1007f
:1018000008003200f203b200c1a2200002814000b1
:1018100092407800014878006e2aec001000200009
:10182000000006000000eb00000006000600fa00c1
:10183000000f7800110798001e007800200798001c
:101840002e009000e30f5000670032002e00900041
:10185000e30f500007003e002e009000e10f500003
:101860002e0032002e009000e10f500041003e009b
:101870000d0037002e009000e50f5000940032005c
:101880002e009000e50f5000740039002e009000eb
:10189000e60f5000ab0032002e009000e70f500022
:1018a000c5003200da0037001e009000e10f500042
:1018b0000f003600c4c2bf000080fb004600de00ff
:1018c000614060000004a20061406000614060006f
:1018d0004601dd00412c200091407800f0cbb300a0
:1018e00000c0600002407000c4e2b7001e01370073
:1018f0001e00900061406000614060004601dd0014
:10190000412c200091407800f0cbb30000c0600073
:1019100002407000c4e2b700130137001e009000bf
:10192000e10f50000b003600c4c2bf000080fb0076
:101930004700de000004a20061406000c700dd0037
:10194000c4c2bf000074a10001407000c4e2b7002f
:10195000050137001e00900061406000c700dd00f7
:10196000c4c2bf000074a10001407000c4e2b7000f
:10197000fd0037001e009000e10f50000f00360000
:10198000c5c2bf000080fb000000d10061406000c4
:101990000004a2006140600061406000004140001e
:1019a000512c200091407800d0cfb30000c06000df
:1019b00002407000c5e2b700eb0037001e00900047
:1019c000614060006140600000414000512c2000f7
:1019d00091407800d0cfb30000c06000024070009a
:1019e000c5e2b700e00037001e009000e10f500094
:1019f0000f003600c5c2bf000080fb004400de00bf
:101a0000614060000004a20061406000614060002d
:101a10004401dd00512c200091407800f0ceb3004d
:101a200000c0600002407000c5e2b700ce00370081
:101a30001e00900061406000614060004401dd00d4
:101a4000512c200091407800f0ceb30000c060001f
:101a500002407000c5e2b700c30037001e009000ce
:101a6000e10f50000f003600c5c2bf000080fb0030
:101a70004200de00614060000004a200614060009e
:101a8000614060004201dd00512c2000914078004f
:101a9000b0cfb30000c0600002407000c5e2b700e4
:101aa000b10037001e00900061406000614060009e
:101ab0004201dd00512c200091407800b0cfb300ee
:101ac00000c0600002407000c5e2b700a600370009
:101ad0001e009000e10f50000f003600c5c2bf008d
:101ae0000080fb004500de00614060000004a200b1
:101af00061406000614060004501dd00512c200024
:101b000091407800f0cdb30000c06000024070004a
:101b1000c5e2b700940037001e00900061406000ed
:101b2000614060004501dd00512c200091407800ab
:101b3000f0cdb30000c0600002407000c5e2b70005
:101b4000890037001e009000e10f50000f003600a2
:101b5000c5c2bf000080fb004600de00614060009f
:101b60000004a20061406000614060004601dd00a9
:101b7000512c200091407800f0cbb30000c06000f1
:101b800002407000c5e2b700770037001e009000e9
:101b900061406000614060004601dd00512c200082
:101ba00091407800f0cbb30000c0600002407000ac
:101bb000c5e2b7006c0037001e009000e10f500036
:101bc0000b003600c5c2bf000080fb004700de00ee
:101bd0000004a20061406000c700dd00c5c2bf0074
:101be0000074a10001407000c5e2b7005e0037003c
:101bf0001e00900061406000c700dd00c5c2bf004c
:101c00000074a10001407000c5e2b7005600370023
:101c10001e00900061406000c700dd00c5c2bf002b
:101c20000074a10001407000c5e2b700c5c2bf004a
:101c30000080fb004700de00614060004601dd00df
:101c4000512c200091407800f0cbb30000c0600020
:101c500002407000c5e2b700c5c2bf000080fb00b3
:101c60004600de0061406000614060004501dd002b
:101c7000512c200091407800f0cdb30000c06000ee
:101c800002407000c5e2b700c5c2bf000080fb0083
:101c90004500de0061406000614060004201dd00ff
:101ca000512c200091407800b0cfb30000c06000fc
:101cb00002407000c5e2b700c5c2bf000080fb0053
:101cc0004200de0061406000614060004401dd00d0
:101cd000512c200091407800f0ceb30000c060008d
:101ce00002407000c5e2b700c5c2bf000080fb0023
:101cf0004400de006140600061406000004140003f
:101d0000512c200091407800d0cfb30000c060007b
:101d100002407000c5e2b700c5c2bf000080fb00f2
:101d20000000d10061406000c700dd00c4c2bf00f8
:101d30000074a10001407000c4e2b700c4c2bf003b
:101d40000080fb004700de00614060004601dd00ce
:101d5000412c200091407800f0cbb30000c060001f
:101d600002407000c4e2b7000080fa0000000600e4
:101d70000000fa00c4c2a900c4e2a900c522a9005b
:101d8000c582a900c542a900c5a2a900c5c2a90073
:101d9000c5e2a9000080fa00000006000200fa0077
:101da000000f7800100020009e0f10000f0036007a
:101db000d0c2bf000080fb004200de006140600036
:101dc0000004a20061406000614060004201dd004b
:101dd000012d200091407800b0cfb30000c060001a
:101de00002407000d0e2b7000a0037001e00780001
:101df00061406000614060004201dd00012d200073
:101e000091407800b0cfb30000c060000240700085
:101e1000d0e2b7000080fa00000006000200fa00dd
:101e2000000f7800100020009e0f10000f003600f9
:101e3000d0c2bf000080fb000000d1006140600004
:101e40000004a20061406000614060000041400069
:101e5000012d200091407800d0cfb30000c0600079
:101e600002407000d0e2b7000a0037001e00780080
:101e7000614060006140600000414000012d200091
:101e800091407800d0cfb30000c0600002407000e5
:101e9000d0e2b7000080fa00000006000000fa005f
:101ea000c4c2bf000080fb004600de00614060004d
:101eb00000c0ea0061406000614060004601dd0052
:101ec000412c200091407800f0cbb30000c06000ae
:101ed00002407000c4e2b700c4c2bf000080fb0033
:101ee0004700de0000c0ea0061406000c700dd007e
:101ef000c4c2bf000074a10001407000c4e2b7007a
:101f0000c5c2bf000080fb000000d100614060003e
:101f100000c0ea0061406000614060000041400094
:101f2000512c200091407800d0cfb30000c0600059
:101f300002407000c5e2b700c5c2bf000080fb00d0
:101f40004400de006140600000c0ea0061406000c3
:101f5000614060004401dd00512c20009140780078
:101f6000f0ceb30000c0600002407000c5e2b700d0
:101f7000c5c2bf000080fb004200de00614060007f
:101f800000c0ea0061406000614060004201dd0085
:101f9000512c200091407800b0cfb30000c0600009
:101fa00002407000c5e2b700c5c2bf000080fb0060
:101fb0004500de006140600000c0ea006140600052
:101fc000614060004501dd00512c20009140780007
:101fd000f0cdb30000c0600002407000c5e2b70061
:101fe000c5c2bf000080fb004600de00614060000b
:101ff00000c0ea0061406000614060004601dd0011
:10200000512c200091407800f0cbb30000c060005c
:1020100002407000c5e2b700c5c2bf000080fb00ef
:102020004700de0000c0ea0061406000c700dd003c
:10203000c5c2bf000074a10001407000c5e2b70036
:102040000080fa00000006000000fa00c4c2bf00d1
:102050000080fb004600de006140600000c0ea0036
:1020600061406000614060004601dd00412c2000bd
:1020700091407800f0cbb30000c0600002407000d7
:10208000c4e2b7000080fa00000006000000fa0079
:10209000c4c2bf000080fb004700de0000c0ea00b1
:1020a00061406000c700dd00c4c2bf000074a10031
:1020b00001407000c4e2b7000080fa000000060092
:1020c0000000fa00c5c2bf000080fb000000d10084
:1020d0006140600000c0ea00614060006140600053
:1020e00000414000512c200091407800d0cfb30037
:1020f00000c0600002407000c5e2b7000080fa0036
:10210000000006000000fa00c5c2bf000080fb000e
:102110004400de006140600000c0ea0061406000f1
:10212000614060004401dd00512c200091407800a6
:10213000f0ceb30000c0600002407000c5e2b700fe
:102140000080fa00000006000000fa00c5c2bf00cf
:102150000080fb004200de006140600000c0ea0039
:1021600061406000614060004201dd00512c2000b0
:1021700091407800b0cfb30000c060000240700012
:10218000c5e2b7000080fa00000006000000fa0077
:10219000c5c2bf000080fb004500de00614060005a
:1021a00000c0ea0061406000614060004501dd0060
:1021b000512c200091407800f0cdb30000c06000a9
:1021c00002407000c5e2b7000080fa00000006007f
:1021d0000000fa00c5c2bf000080fb004600de0020
:1021e0006140600000c0ea00614060006140600042
:1021f0004601dd00512c200091407800f0cbb30067
:1022000000c0600002407000c5e2b7000080fa0024
:10221000000006000000fa00c5c2bf000080fb00fd
:102220004700de0000c0ea0061406000c700dd003a
:10223000c5c2bf000074a10001407000c5e2b70034
:102240000080fa00000006000200fa00000f78008b
:102250009e007800e0f4200060fc07000080fa0097
:10226000000006000000fa00e0f420008bfc0700ec
:102270000080fa00000006000200fa00000f78005b
:102280001e00e000030035009e007800e0f420000e
:10229000aafc07000080fa00000006000000fa0017
:1022a00000cbbf000004e0000b003a008000eb0010
:1022b000700020005dfd070000cbbf000080fb0028
:1022c0001100200059fd070000cbbf000040e800ce
:1022d00000ebb7001b00370000cbbf00e74f5000fa
:1022e0000c003a0000cbbf000080fb000000e900ba
:1022f0008000eb004dfd070000cbbf000080fb001d
:102300001100200049fd07000040eb0000ebb70082
:102310000c00370000cbbf000080fb000000e9008c
:102320008000eb0041fd070000cbbf000080fb00f8
:10233000110020003dfd070000cbbf000040e80079
:1023400000ebb7000080fa00000006000200fa006f
:1023500001cbbf000080fb00000f78001e0078005a
:10236000e20f50001c0032001e007800e20f500007
:1023700007003c001e0078000000e0000b00320067
:102380001e007800e10f50000c00320023003700df
:102390001e007800e30f5000160032001e00780087
:1023a000e40f50001a0032001c003700210020000a
:1023b0000000eb001dfd0700180037002100200081
:1023c0001000200019fd07002100200070002000ef
:1023d00016fd07001100370021002000200020001a
:1023e00012fd070021002000600020000ffd070003
:1023f0000a00370021002000300020000bfd0700fc
:10240000210020005000200008fd070003003700d5
:10241000210020004000200004fd070001cbbf0088
:10242000e34f500004003e0001cbbf000040e80035
:1024300001ebb700020037000040eb0001ebb700f2
:102440000080fa00000006000000fa0002cbbf0086
:102450000004e0000f003a001ccbbf000004e000c5
:102460000c00320010c0b30002ebb7008000eb009c
:102470000000eb00edfc070002cbbf000080fb007a
:1024800011002000e9fc07000040eb001cebb70046
:102490002b00370002cbbf000004e0000f003a0021
:1024a0001ccbbf000004e0000c003a0070c0b30079
:1024b00002ebb7008000eb000000eb00dbfc070044
:1024c00002cbbf000080fb0011002000d7fc0700fa
:1024d00010c0b3001cebb7001900370002cbbf00df
:1024e000e74f50000a003a000040eb0002ebb70053
:1024f0008000eb0070002000ccfc070002cbbf0086
:102500000080fb0011002000c8fc07000c00370011
:1025100002cbbf00e14f500009003a000040eb0041
:1025200002ebb7008000eb0010002000bffc0700aa
:1025300002cbbf000080fb0011002000bbfc0700a5
:102540000080fa00000006000200fa0003cbbf0082
:102550000080fb00000f78001e007800e10f5000a3
:10256000150032001e007800e10f500004003c000e
:102570001e0078000000e000080032001a0037005a
:102580001e007800e20f5000120032001e0078009a
:10259000e30f500013003200130037002100200029
:1025a0000000eb00a1fc07002100200040002000fb
:1025b0009efc07000c0037002100200010002000c6
:1025c0009afc0700210020003000200097fc070043
:1025d00005003700210020002000200093fc0700a8
:1025e00001003700e2fd070003cbbf00e24f5000bf
:1025f00004003e0003cbbf000040e80003ebb7003f
:10260000020037000040eb0003ebb7000080fa0047
:10261000000006000200fa0004cbbf000080fb00af
:10262000000f78001e007800e10f50001500320006
:102630001e007800e10f500004003c001e007800ee
:102640000000e000080032001a0037001e00780089
:10265000e20f5000120032001e007800e30f50001d
:102660001300320013003700210020000000eb00af
:102670006efc070021002000400020006bfc0700da
:102680000c003700210020007000200067fc0700cc
:10269000210020005000200064fc070005003700e6
:1026a000210020006000200060fc070001003700ce
:1026b000affd070004cbbf00e24f500004003e0016
:1026c00004cbbf000040e80004ebb7000200370075
:1026d0000040eb0004ebb7000080fa0000000600a9
:1026e0000000fa000000370006c2bf006140600031
:1026f0000004e000fcff3a0006c2bf006440600036
:102700000004e000f8ff3a0006c2bf006840600025
:102710000004e000f4ff3a0006c2bf007040600011
:102720000004e000f0ff3a0009c2bf000044b2001c
:102730000004e000ecff3a000080fa000000060010
:102740000400fa00600920002010880007e2a900b8
:1027500007e2a80085c0a90085a0a900b109200052
:102760009140780080cfb30000c060005040b300bb
:102770009be0b7008da0a90000712200010020009d
:10278000008fbe00040037000080eb008080eb006b
:102790001e0f40005e9748001e00be00e00f500074
:1027a000e08f5800f8ff3a00100020000080fa0087
:1027b000000006000400fa006000b800008fbe00b0
:1027c00007e2a90085c0a90085a0a9008da0a900e5
:1027d0000071220001002000008fbe0004003700bd
:1027e0000080eb008080eb001e0f40005e974800e9
:1027f0001e00be00e00f5000e08f5800f8ff3a00c6
:10280000cfff07000f000700007122000100200029
:10281000008fbe00040037000080eb008080eb00da
:102820001e0f40005e9748001e00be00e00f5000e3
:10283000e08f5800f8ff3a00100020000080fa00f6
:10284000000006000000fa0085c0a9008dc0a800a5
:10285000100020000080fa00000006000000fa00ce
:1028600085c0a9008dc0a900100020000080fa00da
:10287000000006000600fa0010c0b300f8eab70036
:1028800008c2bf00704060000004e0001600320083
:102890000602a8000071220001002000008fbe0087
:1028a0000a003700f8cabf000004e00003003a0045
:1028b00010002000200798000d0037000080eb007a
:1028c0008080eb001e0f40005e9748001e00be0097
:1028d000e00f5000e08f5800f2ff3a008000eb005c
:1028e00021079800020037000000eb002007980045
:1028f0002e0090000080fa00000006000600fa009a
:1029000060c0b300f8eab70008c2bf0068406000ca
:102910000004e000160032000622a8000071220028
:1029200001002000008fbe000a003700f8cabf0077
:102930000004e00003003a00100020002007980087
:102940000d0037000080eb008080eb001e0f400080
:102950005e9748001e00be00e00f5000e08f580058
:10296000f2ff3a008000eb002107980002003700d8
:102970000000eb00200798002e0090000080fa0075
:10298000000006000600fa0050c0b300f8eab700e5
:102990000642a8000071220001002000008fbe0046
:1029a0000a003700f8cabf000004e00003003a0044
:1029b00010002000200798000a0037000080eb007c
:1029c0008080eb001e0f40005e9748001e00be0096
:1029d000e00f5000e08f5800f2ff3a008000eb005b
:1029e000210798002e0090000080fa0000000600e9
:1029f0000600fa0030c0b300f8eab70006c2bf0014
:102a0000614060000004e00010003a0006c2bf0010
:102a1000644060000004e0000c003a0006c2bf0001
:102a2000684060000004e00008003a0006c2bf00f1
:102a3000704060000004e00004003a0006c2bf00dd
:102a4000624060000004e000030032000000eb0080
:102a5000200798001600370006a2a9000682a800e9
:102a60000071220001002000008fbe000a00370024
:102a7000f8cabf000004e00003003a001100200083
:102a8000210798000a0037000080eb008080eb00ef
:102a90001e0f40005e9748001e00be00e00f500071
:102aa000e08f5800f2ff3a008000eb002107980009
:102ab0002e0090000080fa00000006000600fa00d8
:102ac00030c0b300f8eab70006c2bf006140600042
:102ad0000004e00010003a0006c2bf00644060003d
:102ae0000004e0000c003a0006c2bf00684060002d
:102af0000004e00008003a0006c2bf007040600019
:102b00000004e00004003a0006c2bf00624060001a
:102b10000004e000030032000000eb0020079800f2
:102b20001600370006a2a8000682a8000071220045
:102b300001002000008fbe000a003700f8cabf0065
:102b40000004e00003003a00110020002107980073
:102b50000a0037000080eb008080eb001e0f400071
:102b60005e9748001e00be00e00f5000e08f580046
:102b7000f2ff3a008000eb00210798002e00900041
:102b80000080fa00000006000a00fa0030079800f2
:102b90000071220001002000100798002107980012
:102ba0000040eb00004f780040c0b300f8eab700e7
:102bb00000712200010020001007980021079800f2
:102bc0001d00370006c2bf00614060000004e00045
:102bd00013003a0006c2bf00644060000004e00039
:102be0000f003a0006c2bf00684060000004e00029
:102bf0000b003a0006c2bf00704060000004e00015
:102c000007003a0009c2bf000044b2000004e0001f
:102c100003003a0010c0b300004f78000b003700eb
:102c20001e009000ae00900061005000e08058004f
:102c300010079800210798001e009000ae00900039
:102c4000e00f5000e08f5800deff3a001e04e00065
:102c500003003a000000eb00400798001d00370019
:102c60000662a800006a28001100200010079800e2
:102c70002107980010003700f8cabf000004e000e8
:102c800007003a0000c2bf00804078003e0090007c
:102c90000148780010002000400798000d00370020
:102ca0001e009000ae00900061005000e0805800cf
:102cb00010079800210798001e009000ae009000b9
:102cc000e00f5000e08f5800ebff3a000000eb00ef
:102cd000400798004e0090000080fa0000000600b7
:102ce0000800fa004047980020c0b300f8eab70097
:102cf0004e40900002e2b700007122000100200067
:102d0000008fbe000a003700f8cabf000004e000d0
:102d100003003a0010002000300798000a00370036
:102d20000080eb008080eb001e0f40005e974800a3
:102d30001e00be00e00f5000e08f5800f2ff3a0086
:102d40008000eb00310798003e0090000080fa0000
:102d500000000600801f78003400f80000c0b300b7
:102d6000a00188000000fa0085c0a9000040eb0027
:102d7000f8eab7000080fa003400f9004f0078004c
:102d8000004006008540a900809fbe00821f780099
:102d90000a0be20015003200060be20016003200ba
:102da000080be2001400320031588000420020007d
:102db0000f22af00feff3700405880000000e00007
:102dc000070032000000e90008abb700314078008e
:102dd00010e2b7000201e900f5ff3a0002003700f7
:102de000062bef0001003700315888004f017800b2
:102df0004f00be0000400600000020005058880030
:102e00004f0178004f00be00004006000a0be200b0
:102e1000feff3a008d40a9008100e900415888007a
:102e2000b0407800811088003058880011002000e0
:102e3000515888008d40a8000000060050588000be
:102e4000000006000000fa000000eb0020088800e7
:102e50004110200091407800f0ccb30000c0600029
:102e60000044a00004e1b7000000eb000008880067
:102e700050282000100888008460a9008c60a800f9
:102e800005e1a8000080fa00000006003600f80006
:102e9000809fbe00829fbe00849fbe00869fbe00b2
:102ea0003400f80000c0b300a00188000200fa005e
:102eb0008460a900a0558000000f78001e007800f3
:102ec000e10f5000330032001e007800e10f500087
:102ed00004003c001e0078000000e0000800320002
:102ee0009a0037001e007800e20f50004e003200ba
:102ef0001e007800e30f500070003200930037008e
:102f0000b05580000000e0000c003a00502820007e
:102f10001008880080002000500b0700c055880072
:102f2000c00020004d0b070000568800e2e2a80018
:102f300010002000b055880084003700e0f1200028
:102f40001008880080002000440b070040568800cd
:102f5000c0002000410b070080568800c15580004a
:102f60004056800000805000c05688000156800006
:102f7000805680000080500000578800e2e2a900df
:102f80000000eb00b055880010002000a05588001c
:102f90006e003700b05580000000e0000c003a00e1
:102fa0005028200010088800900020002b0b0700fc
:102fb000d0558800d0002000280b0700105688004c
:102fc000e302a80010002000b05588005f00370021
:102fd000e0f1200010088800900020001f0b07007f
:102fe00050568800d00020001c0b07009056880027
:102ff000d15580005056800000805000d056880087
:1030000011568000905680000080500010578800b4
:10301000e302a9000000eb00b0558800200020006a
:10302000a055880049003700b05580000000e0003e
:103030000c003a005028200010088800a000200052
:10304000060b0700e0558800e0002000030b070096
:1030500020568800e802a80010002000b055880023
:103060003a003700e0f1200010088800a00020009e
:10307000fa0a070060568800e0002000f70a0700ff
:10308000a0568800e1558000605680000080500006
:10309000e056880021568000a05680000080500035
:1030a00020578800e802a9000000eb00b055880016
:1030b00030002000a055880024003700b055800063
:1030c0000000e0000c003a005028200010088800a2
:1030d000b0002000e10a0700f0558800f000200051
:1030e000de0a070030568800e822a8001000200001
:1030f000b055880015003700e0f120001008880066
:10310000b0002000d50a070070568800f0002000ab
:10311000d20a0700b0568800f15580007056800032
:1031200000805000f056880031568000b056800074
:103130000080500030578800e822a9000000eb0012
:10314000b05588000000eb00a05588000080fa0010
:103150003400f9004f03be004f02be004f01be0015
:103160004f00be003600f900004006000000fa00e3
:103170009c0a070033ff07000080fa0000000600e9
:103180000000fa0005e1a900e822a900e8c2bf009a
:103190000080fb000000d1006140600061416000e0
:1031a000812e200091407800e0cfb30000c0600085
:1031b00002407000e8e2b700e8c2bf006140600072
:1031c00061416000312e200091407800e0cfb300d3
:1031d00000c0600002407000e3e2b700e3c2bf003d
:1031e00061406000c700dd00e2c2bf000074a100c2
:1031f00001407000e2e2b7000080fa000000060023
:103200000400fa00000f7800700020009e0f1000ec
:10321000030036000000eb0010079800060037009e
:103220001e0078008000400080ad2000008040003b
:1032300010007800100798001e0090000080fa002f
:10324000000006000400fa00000f78007000200063
:103250009e0f1000030036000000eb0010079800de
:10326000060037001e0078008000400080ab200080
:103270000080400010007800100798001e009000a9
:103280000080fa00000006001200fa00000f78002b
:103290001107980022079800330798004407980008
:1032a0005507980066079800f0588000000f9800b6
:1032b000000323008e089000808f5000050032002c
:1032c000000326008e089000808f50000b00320013
:1032d000140037006e039000de0290004e02900052
:1032e000be0190002e0190009e0090001e0078000c
:1032f000b5030700700798000c0037006e039000bc
:10330000de0290004e029000be0190002e0190005f
:103310009e0090001e007800c6f607007007980017
:10332000020037000080eb00700798007e009000dc
:103330000080fa00000006000600fa00000f780086
:1033400011079800f0588000200798000003230020
:10335000ae009000808f5000050032000003260070
:10336000ae009000808f500005003200070037004b
:103370009e0090001e007800290607000300370019
:103380009e0090001e007800bf0107000080fa0038
:10339000000006000000fa00f1588000000323003e
:1033a000808f500001003200010037000505070042
:1033b0000080fa00000006000400fa00bc040700c8
:1033c00036090700d1a2a900400620001007980086
:1033d00004003700000000001e0090000000e9001b
:1033e000100798001e0090000000e000f9ff3a006e
:1033f000d1a2a80040062000100798000400370062
:10340000000000001e0090000000e9001007980076
:103410001e0090000000e000f9ff3a0081e0a900e2
:10342000f1048000f0002f00808060000066200022
:1034300000804000f00488008040eb00c0cdb30065
:10344000220907001047980011c0b300c0cdb30097
:103450001e090700004f78001e4090000080fb000e
:10346000c800dd001e80fb0000807000f05888005e
:103470000080fa00000006000200fa00004f780009
:103480000a0907001e41780031c0b300c0cdb30067
:1034900032090700090907000080fa000000060051
:1034a0000400fa00004f7800114798002247980066
:1034b0001e407800f0ff0700fc0807002e41900036
:1034c0009e409000c0cdb30024090700fb08070010
:1034d0000080fa00000006000400fa00204798006f
:1034e000314798002e409000e3ff0700ef080700e7
:1034f000be409000c0cdb300f4080700004f780034
:10350000ee0807001e80fb000080fa0000000600a5
:103510000200fa00004f78001e41780011c9b30084
:103520000040eb00deff07000080fa00000006000c
:103530000200fa00004f78001e41780081c6b300f7
:1035400010c0b300d6ff07000080fa00000006009c
:103550000600fa00004f78001e80fb00200798004c
:1035600000042000ae009000808f50001a0032004e
:1035700000082000ae009000808f5000270032002d
:1035800000022000ae009000808f50000100320049
:103590003300370010c0b300e5ff07001e4178007c
:1035a00001c8b30010c0b300bdff07001e41780082
:1035b00011c8b30010c0b300b9ff070012c0b300b8
:1035c00021c8b30010c0b300b5ff07000000eb0036
:1035d000100798002400370030c0b300d4ff070064
:1035e0001e41780001c8b30010c0b300acff070053
:1035f0001e41780011c8b30010c0b300a8ff070037
:1036000012c0b30021c8b30010c0b300a4ff07006c
:103610008000eb00110798001300370070c0b30062
:10362000c3ff07001e41780001c8b30010c0b300fb
:103630009bff07001e41780011c8b30010c0b30003
:1036400097ff070012c0b30021c8b30010c0b30039
:1036500093ff07000000eb001007980002003700fe
:103660008080eb00110798001e0090000080fa0097
:10367000000006000600fa00004f78001e80fb00e4
:103680002007980000042000ae009000808f5000ba
:103690001a00320000082000ae009000808f500019
:1036a0002700320000022000ae009000808f500002
:1036b00001003200330037000040eb009cff0700a0
:1036c0001e41780001c8b30010c0b30074ff0700aa
:1036d0001e41780011c8b30010c0b30070ff07008e
:1036e00012c0b30021c8b30010c0b3006cff0700c4
:1036f0000000eb00100798002400370010c0b30052
:103700008bff07001e41780001c8b30010c0b30052
:1037100063ff07001e41780011c8b30010c0b3005a
:103720005fff070012c0b30021c8b30010c0b30090
:103730005bff07008000eb001107980013003700c3
:1037400030c0b3007aff07001e41780001c8b30003
:1037500010c0b30052ff07001e41780011c8b3002b
:1037600010c0b3004eff070012c0b30021c8b30061
:1037700010c0b3004aff07000000eb0010079800dc
:10378000020037008080eb00110798001e009000b7
:103790000080fa00000006000600fa00004f7800e2
:1037a000114798001e80fb00200798002e00900013
:1037b000e10f50000f0032002e009000e20f500089
:1037c000140032002e0090000000e00001003200e2
:1037d00018003700d2c0b30081c3b30010c0b300db
:1037e0002fff07001e40900059ff070010079800a8
:1037f0001200370082c0b30081c3b30010c0b30011
:1038000027ff07001e4090009aff0700100798004e
:103810000a00370022c0b30081c3b30010c0b30058
:103820001fff07001e40900092ff0700100798003e
:10383000020037000080eb00100798001e00900087
:103840000080fa00000006000a00fa002007980035
:1038500031079800ae0090003e009000808f50002d
:10386000030039000080eb00400798001e0037007d
:10387000be009000f0312000808f50000300360021
:103880000080eb0040079800170037002e009000e2
:103890000000e900200798002e00900020479800c3
:1038a0002e0090004800de00304798003e00900057
:1038b000004f78003e0090004800de00104798005e
:1038c0002e41900011c5b30010c0b300f4fe0700f4
:1038d0003e41900001c5b30010c0b300f0fe0700e8
:1038e0000000eb00400798004e0090000080fa00b6
:1038f000000006000800fa00200798003107980031
:103900000000eb000080fa00000006000a00fa0048
:103910002007980031079800ae0090003e0090000c
:10392000808f5000030039000080eb0040079800b2
:1039300023003700be009000301f2000808f500011
:10394000030036000080eb00400798001c003700a1
:103950002e009000204798002e0090004800de00c6
:10396000304798003e009000004f78003e009000e5
:103970004800de00104798003e41900001c6b300a9
:1039800010c0b300c6fe07002e41900011c6b30060
:1039900010c0b300c2fe07001e41900021c6b30054
:1039a00010c0b300befe07001e41780031c6b30050
:1039b00010c0b300bafe07000000eb0040079800fb
:1039c0004e0090000080fa00000006000200fa009d
:1039d000000f780012c0b300a1c5b30020c0b3002f
:1039e000affe070012c4b30021c3b30010c0b30080
:1039f000abfe07001e00e00011003a0000c1eb0022
:103a000081c8b30010c0b300a5fe070000c1eb00e1
:103a100091c8b30010c0b300a1fe070082c0b3007c
:103a2000a1c8b30010c0b3009dfe070000c1eb00a9
:103a3000b1c8b30010c0b30099fe070010003700f2
:103a400002c2b30081c8b30010c0b30094fe0700e7
:103a500002c8b30091c8b30010c0b30090fe0700c5
:103a600082c0b300a1c8b30010c0b3008cfe070031
:103a700000c1eb00b1c8b30010c0b30088fe07005e
:103a80000080fa00000006000600fa001007980007
:103a90002107980001c9b3000040eb008efe07002b
:103aa000004f78001e0090000000e000030032008c
:103ab00000c8b3001e4f700002003700f0c7b3000b
:103ac0001e4f60002e0090000000e0000300320056
:103ad00000c4b3001e4f700002003700f0cbb300eb
:103ae0001e4f60001e41780001c9b3000040eb008a
:103af0006bfe07000080fa00000006000400fa00d8
:103b0000a05780000000e0001f00320041578000f5
:103b100080da2f00808f50001b0035004157800055
:103b200080252000808f500017003c00d602a9009d
:103b3000d622a900d642a900d662a9000000eb0057
:103b4000a0578800405780000001780012079800b5
:103b50001e0190000200e00003003d001e019000e5
:103b60000201ea0012079800007122001e01900075
:103b7000110009000200d800ef005000e0d721003a
:103b80006ef607004d003700405780000000e0004f
:103b90000c003400805780000000e8008057880047
:103ba000605780000000e90060578800605780007f
:103bb0000000e0000e003d0030002000605788004b
:103bc0000b003700805780000000e9008057880014
:103bd000605780000000e800605788006057800050
:103be000e30f5000020034000000eb006057880033
:103bf00060578000000f78001e017800e10f51002f
:103c0000130032001e007800e10f500004003c0059
:103c10001e0178000200e000080032001a003700a0
:103c20001e007800e20f50000e0032001e017800e6
:103c3000e30f51001000320013003700d602a90034
:103c4000d622a800d642a900d662a8000e003700ee
:103c5000d602a900d622a800d642a800d662a900a2
:103c600009003700d602a800d622a900d642a80033
:103c7000d662a90004003700d602a800d622a90007
:103c8000d642a900d662a8004157800080da2f00f2
:103c9000808f5000090035004157800080252000aa
:103ca000808f500005003c0010002000a0578800c5
:103cb000f1002000e0d7210020f607000080fa0084
:103cc000000006000400fa00b05780000000e00089
:103cd0001f0032005157800080da2f00808f500083
:103ce0001b0035005157800080252000808f500038
:103cf00017003c00d682a900d6a2a900d6c2a9000e
:103d0000d6e2a9000000eb00b057880050578000b1
:103d100000017800120798001e0190000200e000e8
:103d200003003d001e0190000201ea001207980006
:103d3000007122001e019000110009000200d8004d
:103d4000ef00500020e62100fcf507004d00370091
:103d5000505780000000e0000c003d0090578000ac
:103d60000000e90090578800705780000000e900cb
:103d700070578800705780000000e0000e003d0082
:103d800030002000705788000b00370090578000eb
:103d90000000e80090578800705780000000e8009d
:103da0007057880070578000e30f50000200340005
:103db0000000eb007057880070578000000f7800fb
:103dc0001e017800e10f5100130032001e00780040
:103dd000e10f500004003c001e0178000200e000ea
:103de000080032001a0037001e007800e20f500071
:103df0000e0032001e017800e30f51001000320067
:103e000013003700d682a900d6a2a800d6c2a90006
:103e1000d6e2a8000e003700d682a900d6a2a800dc
:103e2000d6c2a800d6e2a90009003700d682a800b1
:103e3000d6a2a900d6c2a800d6e2a9000400370085
:103e4000d682a800d6a2a900d6c2a900d6e2a800b0
:103e50005157800080da2f00808f50000900350014
:103e60005157800080252000808f500005003c00c5
:103e700010002000b0578800f100200020e621004b
:103e8000aef507000080fa00000006000000fa000e
:103e90008000eb00e0d7210050f507008000eb0028
:103ea00020e621004df507000080fa000000060022
:103eb0000200fa00000f78001e00e0000a003a003d
:103ec0000000eb00405788008000eb00e0d72100a5
:103ed0009af50700d602a900d622a900d642a90069
:103ee000d662a9002d00370080c12f009e0f100060
:103ef0000a003d0080c12f004057880042578000d3
:103f0000008f2d00110009000200d8008000780009
:103f1000e0d7210089f5070020003700803e20000f
:103f20009e0f10000a003400803e20004057880099
:103f30004257800000712200110009000200d800e1
:103f400080007800e0d721007cf5070013003700df
:103f50001e007800405788001e00e00008003d0069
:103f6000008f2d001e017800110009000200d8000a
:103f700080007800e0d7210070f5070007003700c7
:103f8000007122001e017800110009000200d80013
:103f900080007800e0d7210068f507000080fa0073
:103fa000000006000200fa00000f78001e00e0008a
:103fb0000a003a000000eb00505788008000eb0038
:103fc00020e621005df50700d682a900d6a2a9004f
:103fd000d6c2a900d6e2a9002d00370080c12f006b
:103fe0009e0f10000a003d0080c12f00505788002e
:103ff00052578000008f2d00110009000200d800e8
:104000008000780020e621004cf5070020003700f2
:10401000803e20009e0f10000a003400803e2000e9
:10402000505788005257800000712200110009008b
:104030000200d8008000780020e621003ff507004c
:10404000130037001e007800505788001e00e00063
:1040500008003d00008f2d001e01780011000900ae
:104060000200d8008000780020e6210033f5070028
:1040700007003700007122001e01780011000900be
:104080000200d8008000780020e621002bf5070010
:104090000080fa00000006000800fa00000f780017
:1040a000110798001e007800300798003e0190002c
:1040b0000200e00003003d003e0090000000ea0026
:1040c000300798001e019000220798002e009000f3
:1040d0000000e00003003d002e0190000201ea0014
:1040e000220798003e0090002e01900082004000c0
:1040f000803e2000808f500006003c001e00900093
:104100001e0010006aff07001e0090001e00400005
:10411000a4ff07000080fa00000006000000fa007b
:10412000805780000080fa00000006000200fa00bc
:10413000000f78001e007800805788000080fa0089
:10414000000006000000fa00905780000080fa008e
:10415000000006000200fa00000f78001e00780040
:10416000905788000080fa00000006000c22ef0043
:104170000e22ef000ee2a9000ec2a9008520a900c0
:104180008d20a8000de2a80070002000a01088007b
:104190008540a9008d40a80081e0a900c0048000ee
:1041a000f1002f00008060000155200000804000d9
:1041b000c00488000fe2a8000f42a8006c2aef009c
:1041c0006e2aef00000006002200fa007007980037
:1041d000010f9800120f9800230f9800340f9800d9
:1041e000450f9800560f98007e009000200db000fb
:1041f000700798000e08900067004000000f9800bc
:104200004e0890000000e000030032003e089000dd
:104210000000e00003003a000080eb00600f98000f
:1042200004013700fe0090001e08900080804000ce
:1042300020352000808f5000030036008080eb0086
:10424000610f9800fb0037008e0890002e08900048
:1042500080804000701e2000808f500003003600d8
:104260000080eb00600f9800f20037001e089000fd
:104270003e099000110009000280d8008000fd0076
:104280000000e000030032008080eb00610f980026
:10429000e80037002e0890004e0990001100090038
:1042a0000280d8008000fd000000e0000300320022
:1042b0000080eb00600f9800de0037004e08900091
:1042c000630060000000e00033003a003e08900008
:1042d000630060000000e0000f003a00300320009f
:1042e000000f78004e0890004200de002007980082
:1042f0003e0890004200de00100798000e08900073
:1043000064005000000f98007e0090006400500090
:1043100070079800500037003e0890006100600070
:104320000000e0000f003a0010012000000f7800ac
:104330004e0890000000d100200798003e08900031
:104340000000d100100798000e0890000080e900de
:10435000000f98007e0090000080e9007007980030
:104360003d00370040042000000f7800ce08900088
:10437000210798003e089000100798000e08900052
:104380000000e900000f98007e0090000000e900a6
:1043900070079800300037004e0890006100600000
:1043a0000000e00020003a003e089000610060003c
:1043b0000000e0000f003a0010012000000f78001c
:1043c0004e0890000000d100200798003e089000a1
:1043d0000000d100100798000e0890000080e9004e
:1043e000000f98007e0090000080e90070079800a0
:1043f0001900370040042000000f7800ce0890001c
:10440000210798003e089000100798000e089000c1
:104410000000e900000f98007e0090000000e90015
:10442000700798000c00370040042000000f78004f
:10443000be089000110798004e08900020079800d1
:104440000e0890000000e900000f98007e00900028
:104450000000e900700798001e0090000000e900cd
:10446000500798002e0090000000e90060079800b7
:104470001e0890003e099000110009000280d8003b
:10448000400798002e0890004e0990001100090086
:104490000280d800300798005e089000fd000700f9
:1044a0000000e000030032008080eb00610f980004
:1044b000600037001e007800150107000000e000d2
:1044c000030032000080eb00600f980059003700b5
:1044d0005e0890000000e00017003a009e0078009f
:1044e000710f980030032000fe089000808f50006c
:1044f0000e00320040042000fe089000808f500023
:10450000040032007e089000f10f500004003200d9
:104510001f00370000032000120107001c003700b5
:10452000000220000f010700190037000000eb0017
:104530000c010700160037009e0078000117980054
:10454000300320008e109000808f50000e0032004b
:10455000400420008e109000808f50000400320034
:104560000e109000f10f50000400320008003700d8
:1045700000042000fb0007000500370000032000b6
:10458000f80007000200370000022000f5000700d5
:10459000313520007e009000150107000000e0008a
:1045a000030032008080eb00610f9800210037008b
:1045b000811e20000e089000380107000000e00076
:1045c000030032000080eb00600f980019003700f4
:1045d0007e0090000001e800711e20000e0890008f
:1045e000560107000000e000030032008080eb006d
:1045f000610f98000f0037005e0890001000070060
:10460000000178006e029000de019000ce00900064
:104610003e009000200507000000e000030032008b
:104620000080eb00600f9800020037008000eb0074
:10463000610f98006e0890000080fa0000000600ec
:104640000600fa00000f78001e007800200798008e
:104650002e009000e10f50000a0032002e00900062
:10466000e20f50000a0032002e0090000000e0002f
:1046700001003200090037001000200010079800e8
:1046800008003700200020001007980005003700c0
:1046900020002000100798000200370010002000c2
:1046a000100798001e0090000080fa00000006002d
:1046b0000000fa00c4c2a900c4e2a900c522a900f2
:1046c000c582a900c542a900c5a2a900c5c2a9000a
:1046d000c5e2a900c0c2a900c0e2a900c122a90088
:1046e000c182a900c142a900c1a2a900c1c2a900fa
:1046f000c1e2a900d022a900cc22a900d042a90081
:10470000cc42a900e2e2a900e302a900e802a90064
:10471000e822a900dee2a900df02a900e402a90064
:10472000e422a900e202a900de02a900d602a90043
:10473000d622a900d642a900d662a900d682a90035
:10474000d6a2a900d6c2a900d6e2a900d202a90029
:10475000d222a900d242a900d262a900d282a90025
:10476000d2a2a900d2c2a900d2e2a900d1a2a90076
:10477000cda2a900e842a900e862a900e442a9008c
:10478000e462a900de22a800dec2a800e4c2a800fc
:10479000e4e2a800e502a800e522a800d302a800f0
:1047a000d322a800d342a800d362a800d382a800d5
:1047b000d3a2a800d3c2a800d3e2a8000080fa00c8
:1047c000000006000200fa00380407000000eb00b9
:1047d000000f78000d0037009e00e8004095200093
:1047e0000080400010407800004178009e00780072
:1047f0004095200000804000104078008040780004
:10480000c0cdb300550407001e8fe8009e0078005d
:10481000700d2000808f5000efff36002704070046
:104820000080fa00000006000200fa00881f7800ed
:104830001e0407000000eb00000f78000d00370099
:104840001e04e8009e007800409520000080400093
:104850001040780080407800c0cdb3001b040700f2
:104860008040780040952000000044000148780016
:104870001e8fe8009e007800700d2000808f500091
:10488000efff36000d0407004f0478000080fa00a7
:10489000000006000600fa00000f78001e007800f5
:1048a000200798002e009000e10f50000a0032000f
:1048b0002e009000e20f50000a0032002e009000ff
:1048c0000000e0000100320009003700c0c0b30062
:1048d00097e9b7000900370080c0b30097e9b70037
:1048e0000600370020c0b30097e9b7000300370087
:1048f0000080eb0010079800020037000000eb007a
:10490000100798001e0090000080fa0000000600ca
:104910000400fa00000f7800400420009e0f1000f1
:1049200006003200100120009e0f1000030032002c
:10493000300320009e0f100005003a001e00780092
:1049400087e9b7000000eb0010079800020037006d
:104950000080eb00100798001e0090000080fa0015
:10496000000006000400fa00000f78001e00e000be
:1049700015003200000220009e0f100012003200cd
:10498000000320009e0f10000f00320000042000e2
:104990009e0f10000c003200000520009e0f10003a
:1049a00009003200000620009e0f100006003200b1
:1049b000000620009e0f10000300320000012000be
:1049c0009e0f100005003a001e00780081e9b70034
:1049d0000000eb0010079800020037000080eb0099
:1049e000100798001e0090000080fa0000000600ea
:1049f0000a00fa002007980031079800ae009000e6
:104a00003e009000808f5000030039000080eb00d2
:104a1000400798001e003700be009000303820008c
:104a2000808f5000030036000080eb0040079800a4
:104a3000170037002e0090000000e90020079800c2
:104a40002e009000204798002e0090004800de00c5
:104a5000304798003e009000004f78003e009000e4
:104a60004800de00104798003e4090005de9b70026
:104a70002e4090005fe9b7001e40900065e9b70046
:104a80001e40780067e9b7000000eb00400798007f
:104a90004e0090000080fa00000006000a00fa00b4
:104aa0002007980031079800ae0090003e0090006b
:104ab000808f5000030039000080eb004007980011
:104ac0001b003700be009000301f2000808f500078
:104ad000030036000080eb00400798001400370008
:104ae0002e009000204798002e0090004800de0025
:104af000304798003e009000004f78003e00900044
:104b00004800de00104798003e40900061e9b70081
:104b10002e40900063e9b7001e40900069e9b7009d
:104b20001e4078006be9b7000000eb0040079800da
:104b30004e0090000080fa00000006000e00fa000f
:104b4000300798004107980052079800be00900077
:104b50004e009000808f5000030039000080eb0071
:104b6000600798002b003700ce009000301f200017
:104b7000808f5000030036000080eb006007980033
:104b800024003700de00900030382000808f500075
:104b9000030036000080eb00600798001d0037001e
:104ba0003e009000404798003e0090004800de0024
:104bb000504798004e009000204798004e0090000b
:104bc0004800de00304798005e00900010479800d3
:104bd0005e0090004800de00004f78005e409000cc
:104be000e5e9b7004e409000e7e9b7003e4090008d
:104bf000e9e9b7002e409000ebe9b7001e407800cd
:104c0000ede9b7001e409000efe9b7000000eb00af
:104c1000600798006e0090000080fa000000060017
:104c20000600fa0010079800210798001e00900067
:104c30000000e000060032002e0090000000e000be
:104c400003003200a0ccb300004f78000e00370004
:104c50001e0090000000e00003003200a0c4b3007a
:104c6000004f7800080037002e0090000000e000a0
:104c700003003200a0c8b300004f780002003700e4
:104c8000a0c0b300004f78001e40780083e9b70051
:104c90000080fa00000006000600fa002047980095
:104ca000314798000000eb00000f7800100037003b
:104cb0009e007800409520000080400090407800e1
:104cc0002e40900080cf500008003a001e00e800ff
:104cd0004195200001004000be409000014878004e
:104ce0000000eb0020079800070037001e8fe80047
:104cf0009e007800700d2000808f5000ecff360081
:104d00008080eb00210798002e0090000080fa00c0
:104d1000000006000800fa002047980021079800cc
:104d20000000eb00000f7800110037009e007800b3
:104d30004095200000804000904078002e40900078
:104d400080cf500009003a009e00e8004095200006
:104d500000804000904078002e00900001487800cc
:104d60000000eb0030079800070037001e8fe800b6
:104d70009e007800700d2000808f5000ebff360001
:104d80000080eb00300798003e0090000080fa00a1
:104d9000000006000200fa00004f7800114798005a
:104da0001e4090006de9b7001e4078006fe9b70023
:104db0000080fa00000006000800fa00004f7800aa
:104dc00011479800224798003347980044479800bd
:104dd000f0c4b3009e4f1000030036000080eb00cb
:104de000300798000c0037001e40780071e9b700ca
:104df0001e40900073e9b7002e40900075e9b7009f
:104e00004e40900077e9b7003e40900079e9b70046
:104e10000000eb00300798003e0090000080fa0090
:104e2000000006000400fa00008fbe001e00be0055
:104e30004a09dd004600de0000007100c608de0001
:104e40007de9b7001e00be004209dd004e00de0015
:104e500000007100ce08de007be9b7000040eb00e7
:104e60007fe9b7000080fa00000006000200fa00a7
:104e7000004f78001e40780089e9b7000080fa00f2
:104e8000000006000200fa00000f78001e00e0009b
:104e90000500320099c9bf0001c8b300014070008d
:104ea00099e9b7000300370099c9bf000074a10059
:104eb00099e9b7000080fa00000006000400fa003b
:104ec000004f780011479800224798001e40780054
:104ed0009de9b7001e4090009fe9b7002e4090006a
:104ee000a1e9b7000080fa00000006000200fa0005
:104ef000004f7800114798001e4078007f40600006
:104f00000045b000a3e9b7001e409000a5e9b70036
:104f10000080fa00000006000600fa001007980062
:104f2000414798004e4090000000fb006300600085
:104f30004500dd008040780000c8b30000c040009c
:104f40002beab7000000eb00000f78000d003700df
:104f50001e007800000040003205200000014100e2
:104f60001e007800800078001e0090000080400045
:104f700090407800409520000000410001487800f2
:104f80001e0fe8001e007800e10f5000f0ff360011
:104f90000080fa00000006000000fa00430207004b
:104fa0002bcabf00004178002acabf0080407800a9
:104fb000c0cdb3006902070040020700c19b20007a
:104fc00091407800a6c9bf00020007000080fa00e7
:104fd000000006000600fa0040479800514798007c
:104fe0000000eb00000f7800300207000000eb002b
:104ff000100798001f0037009e0090004095200089
:1050000000804000904078004e40900080cf5000db
:10501000150039009e00900040952000008040005f
:10502000904078005e40900080cf50000e003e001f
:105030001e0090008000e8004095200000804000a5
:1050400010407800004178009e00900040952000bc
:10505000008040001040780080407800c0cdb30050
:105060003e0207001e0fe8001e0090000080e800ce
:10507000100798009e009000700d2000808f500057
:10508000ddff36000d0207001e0078000080fa00e8
:10509000000006000400fa00100798000000eb0072
:1050a000000f78000d0037001e007800000040005f
:1050b000b2062000000141001e0078008000780048
:1050c0001e00900000804000904078004095200035
:1050d00000004100014878001e0fe8001e00780023
:1050e000e10f5000f0ff36000080fa0000000600db
:1050f0000200fa00004f7800114798001e40780027
:10510000d1e9b7001e409000d3e9b7000080fa0053
:10511000000006000200fa00004f780011479800d6
:105120001e407800d5e9b7001e409000d7e9b700cf
:105130000080fa00000006000200fa00004f78002c
:10514000114798001e407800d9e9b7001e40900032
:10515000dbe9b7000080fa00000006000200fa0058
:10516000004f78001e80fb004400dd006f404000cf
:10517000f1e9b7000080fa00000006000200fa0022
:10518000004f7800114798001e80fb004400dd00ae
:10519000804078001e4090006f40600000c04000da
:1051a000f3e9b7000080fa00000006000200fa00f0
:1051b000004f7800114798001e4090000080fb00cf
:1051c0004400dd00804078001e4078006f406000a1
:1051d00000c04000f5e9b7000080fa0000000600ba
:1051e0000400fa00008fbe001e00be004088de00f2
:1051f000cf80de00f7e9b7001e00be004809dd00e1
:105200004800de0000007100c888de00f9e9b70040
:105210001e007800fbe9b7000080fa0000000600dd
:105220000200fa00004f78001e407800fde9b70048
:105230000080fa00000006000400fa00000f780069
:10524000110798001e0078004800de0003eab7004e
:105250001e00780005eab7001e0090004800de003e
:1052600007eab7001e00900009eab7000080fa00c4
:10527000000006000600fa00004f78001147980071
:1052800022479800334798004447980055479800b4
:105290002e4090000beab7003e4090000deab700a8
:1052a0001e4078000feab7001e40900011eab700d8
:1052b0004e40900013eab7005e40900015eab70038
:1052c0000080fa00000006000a00fa00000f7800d3
:1052d000110798002207980033079800200d20003e
:1052e0001e0f40001e009000200db0001007980017
:1052f0002e00900067004000200798003e009000bc
:1053000067004000300798009e0090002035200084
:10531000808f5000030036000080eb0040079800ab
:1053200039003700be009000701e2000808f5000b2
:10533000030036000080eb00400798003200370081
:105340001e0090009e0f100004003100ae0090007f
:105350003e009000808f5000030039000080eb0079
:105360004007980028003700501a20009e0f1000b8
:105370000c0036009e00900090272000808f500087
:1053800008003e00ae009000700a2000808f5000a0
:1053900004003600be00900060142000808f500092
:1053a000030036000080eb0040079800160037002d
:1053b0001e0078004800de0017eab7001e007800e3
:1053c00019eab7001e0090004800de001beab70093
:1053d0001e0090001deab7002e0090004800de007d
:1053e0001feab7002e00900021eab7003e009000af
:1053f0004800de0023eab7003e00900025eab7002f
:105400000000eb00400798004e0090000080fa007a
:10541000000006000600fa00100798002107980017
:105420001e0090000000e000060032002e009000f8
:105430000000e00003003200c0c3b300004f78005a
:105440000e0037001e0090000000e0000300320054
:10545000c0c2b300004f7800080037002e00900053
:105460000000e00003003200c0c1b300004f78002c
:1054700002003700c0c0b300004f78001e40780023
:1054800027eab7000080fa00000006000200fa00d8
:10549000000f78001e00e000050032008bc9bf003d
:1054a000f1c7b300014060008be9b700040037008a
:1054b0008bc9bf0001c8b300014070008be9b70081
:1054c0000080fa00000006000400fa00000f7800d7
:1054d000110798001e00e000050032008bc9bf00d4
:1054e000f1cbb300014060008be9b7000400370046
:1054f0008bc9bf0001c4b300014070008be9b70045
:105500001e0090000000e000050032008bc9bf00c3
:10551000f1cdb300014060008be9b7000400370013
:105520008bc9bf0001c2b300014070008be9b70016
:105530000080fa00000006000a00fa0081c9bf00de
:105540000080fb004007980000032000ce00900080
:10555000808f50003100320000032000ce00900008
:10556000808f50000b003c004e009000f00f500068
:105570002200320000022000ce009000808f5000f8
:10558000220032004e0090000000e00017003200c0
:105590003600370000052000ce009000808f5000bc
:1055a0002600320000052000ce009000808f5000c1
:1055b00005003c0000042000ce009000808f5000c9
:1055c0001a0032002900370000062000ce009000ab
:1055d000808f50001d00320000072000ce00900098
:1055e000808f50001d00320020003700000028008e
:1055f00001072000008fbe002000370000002000bf
:1056000061092000008fbe001c003700000024004c
:1056100081032000008fbe00180037000000220028
:10562000c1012000008fbe001400370000002100df
:10563000e1002000008fbe00100037000080200035
:1056400071002000008fbe000c00370000402800d1
:1056500031002000008fbe000800370000202c0021
:1056600011002000008fbe00040037006000b80069
:1056700020079800310798000a00370097c9bf003b
:10568000ec4f500004003a001e00be000000400035
:1056900081804800008fbe001e00be0020079800d9
:1056a000310798002e009000be0090000080fa00a4
:1056b000000006001000fa0020079800310798004b
:1056c0004207980053079800640798005e00900016
:1056d0000000e000030035005e009000e30f500082
:1056e000030034000080eb00700798004c00370086
:1056f0006e0090000000e000030035006e00900096
:10570000e30f5000030034000080eb0070079800a6
:105710004300370088ff07000001be00606a2000d8
:105720000013b8006010b9000702780000024200c0
:10573000606a20000098b9000002420084037800eb
:105740002e0090006101b9000600be00c7eb070003
:105750001007980078ff07000001be00606a200073
:105760000013b8006010b900070278000002420080
:10577000606a20000098b9000002420084037800ab
:105780003e0090006101b9000600be00b7eb0700c3
:10579000000f78001e0090004800de008fe9b7007f
:1057a0001e00900091e9b7001e0078004800de005e
:1057b00093e9b7001e00780095e9b7004e0090000d
:1057c0000000e000040032008bc9bf000044a000cc
:1057d0008be9b700040037008bc9bf00f1ceb300de
:1057e000014060008be9b7006e009000e34060006c
:1057f0005e009000630060004200dd0000c14000d8
:105800008bc9bf008040780000cfb30000c06000ab
:10581000004041008be9b7000000eb0070079800e2
:105820007e0090000080fa000000060000a0fe004c
:1058300086a0a9001421ef000000000011408000a4
:10584000a280200013002000321ce100050032007d
:10585000080035000000000000000000000000000b
:10586000f9ff3700a01680004800de00805878005d
:10587000f5ff3700114088000628ec00304080001a
:105880000808e30003003a001000200020408800d0
:105890001fe1a9000080fe00004006000000fa00a1
:1058a000a7f307000080fa00000006000000fa00dd
:1058b000e4f307000080fa00000006000000fa0090
:1058c000e6f307000080fa00000006000400fa007a
:1058d00020479800314798000040eb00004f7800c7
:1058e0001800370010c0b300004f7800e1f3070044
:1058f0001e4f60002e409000f9f407001e4f60001c
:105900003e409000f6f407001e4f6000fbf30700d6
:105910001e4f60002e4090000040e800f0f40700a9
:105920001e4f60000e00e80097f407001e4f600055
:1059300062f4070013f407001e04e00003003a00bd
:105940009cf307001e04e000e6ff32001e409000ba
:105950000000fb000080fa00000006000600fa00cc
:105960002047980031479800424798000040eb00dc
:10597000004f78001200370010c0b300004f7800cd
:10598000bcf307001e4f60002e409000d4f40700c7
:105990001e4f60003e409000d1f407001e4f600093
:1059a0004e409000cef407001e4f6000f5f3070054
:1059b0001e4f60001e04e00003003a007df3070064
:1059c0001e04e000ecff32001e00fb000080fa0025
:1059d000000006003400f800881f780008c0b300fb
:1059e000a80188004f0478000000fa0086c0a900d2
:1059f0001fe1a80021e1a9000080fa003400f900ad
:105a0000004006000000fa00200020000009880085
:105a10000000eb00c008880010002000e0088800ab
:105a200086c0a9008ec0a80021e1a8000080fa006d
:105a3000000006000000fa0020002000f0088800a6
:105a400000408000a0088800004080000000e800be
:105a5000d008880086a0a9001fe1a9008ea0a80098
:105a60000080fa00000006000200fa00000f780033
:105a70000000eb00304088001e00780010408800d5
:105a80000000eb0020408800eaff0700ddff070070
:105a90000080fa00000006001200fa0030079800ab
:105aa0004107980052079800630798007407980010
:105ab0000000eb0010079800ce0090005e00900000
:105ac0000088b900800078006e0090000000e800b7
:105ad0000088b9000000e80080007800a0142000d1
:105ae000808f5000030036000080eb00000f98000c
:105af000350037000000eb00200798002300370036
:105b00000000eb00000f7800090037009e009000b5
:105b1000a08020008080400010c0b3008048780042
:105b20001e0090000000e800100798001e0fe8001b
:105b30005e0090009e0f1000f4ff35000000eb00a7
:105b4000000f7800090037009e009000a080200020
:105b5000808040000040eb00804878001e009000ec
:105b60000000e800100798001e0fe800ee0090000b
:105b70005e0090000088b9009e0f5000f2ff3c00cc
:105b80002e0090000000e80020079800ae00900072
:105b90004e009000808f5000d9ff35009e0090008d
:105ba000a08020008080400020c0b30080487800a2
:105bb0007e009000004088003e0090004040880039
:105bc0000000eb00000f98000e0890000080fa0023
:105bd000000006000000fa00204080000080fa006b
:105be000000006000000fa000000eb00201588000d
:105bf0002015800010158800101580000015880001
:105c0000a802a800a822a800a842a900a862a9008a
:105c1000a882a900a8a2a900a8c2a900a8e2a90078
:105c2000a902a900a922a900a942a900a962a90064
:105c3000a982a900a9a2a900a9c2a900a9e2a90054
:105c400020012000201588007000200030158800f9
:105c5000a1e2a8000080fa00000006000600fa0099
:105c6000100798001e009000ef0f50000300360050
:105c70000000eb0020079800120037001e00900083
:105c800030158800a022a8000000eb00000f78006b
:105c9000010037001e0fe800700220009e0f100068
:105ca000fcff34008560a900a022a90085c0bf00c8
:105cb000684060000004e000fcff32000014800037
:105cc000200798002e0090000080fa0000000600d7
